{"project/contracts/LupinSafetyVault.sol":{"LupinSafetyVault":{"abi":[{"inputs":[{"internalType":"address","name":"_usdc","type":"address"}],"stateMutability":"nonpayable","type":"constructor"},{"inputs":[],"name":"ReentrancyGuardReentrantCall","type":"error"},{"inputs":[{"internalType":"address","name":"token","type":"address"}],"name":"SafeERC20FailedOperation","type":"error"},{"anonymous":false,"inputs":[{"indexed":true,"internalType":"address","name":"oldAdmin","type":"address"},{"indexed":true,"internalType":"address","name":"newAdmin","type":"address"}],"name":"AdminUpdated","type":"event"},{"anonymous":false,"inputs":[{"indexed":true,"internalType":"uint256","name":"projectId","type":"uint256"},{"indexed":true,"internalType":"address","name":"researcher","type":"address"},{"indexed":false,"internalType":"uint256","name":"amount","type":"uint256"}],"name":"BountyClaimed","type":"event"},{"anonymous":false,"inputs":[{"indexed":true,"internalType":"uint256","name":"projectId","type":"uint256"},{"indexed":true,"internalType":"address","name":"researcher","type":"address"},{"indexed":false,"internalType":"uint256","name":"amount","type":"uint256"},{"indexed":false,"internalType":"bytes32","name":"exploitHash","type":"bytes32"}],"name":"BountyCreated","type":"event"},{"anonymous":false,"inputs":[{"indexed":true,"internalType":"uint256","name":"projectId","type":"uint256"},{"indexed":true,"internalType":"address","name":"from","type":"address"},{"indexed":false,"internalType":"uint256","name":"amount","type":"uint256"}],"name":"EscrowDeposited","type":"event"},{"anonymous":false,"inputs":[],"name":"GlobalPaused","type":"event"},{"anonymous":false,"inputs":[],"name":"GlobalUnpaused","type":"event"},{"anonymous":false,"inputs":[{"indexed":true,"internalType":"uint256","name":"projectId","type":"uint256"},{"indexed":false,"internalType":"uint8","name":"minScore","type":"uint8"},{"indexed":false,"internalType":"uint16","name":"payoutRateBps","type":"uint16"},{"indexed":false,"internalType":"uint16","name":"penaltyRateBps","type":"uint16"}],"name":"ProjectConfigUpdated","type":"event"},{"anonymous":false,"inputs":[{"indexed":true,"internalType":"uint256","name":"projectId","type":"uint256"},{"indexed":true,"internalType":"address","name":"owner","type":"address"},{"indexed":true,"internalType":"address","name":"token","type":"address"},{"indexed":false,"internalType":"uint8","name":"minScore","type":"uint8"},{"indexed":false,"internalType":"uint16","name":"payoutRateBps","type":"uint16"},{"indexed":false,"internalType":"uint16","name":"penaltyRateBps","type":"uint16"},{"indexed":false,"internalType":"uint256","name":"initialDeposit","type":"uint256"}],"name":"ProjectCreated","type":"event"},{"anonymous":false,"inputs":[{"indexed":true,"internalType":"uint256","name":"projectId","type":"uint256"}],"name":"ProjectPaused","type":"event"},{"anonymous":false,"inputs":[{"indexed":true,"internalType":"uint256","name":"projectId","type":"uint256"}],"name":"ProjectUnpaused","type":"event"},{"anonymous":false,"inputs":[{"indexed":true,"internalType":"uint256","name":"projectId","type":"uint256"},{"indexed":true,"internalType":"address","name":"owner","type":"address"},{"indexed":false,"internalType":"uint256","name":"amount","type":"uint256"}],"name":"RewardsWithdrawn","type":"event"},{"anonymous":false,"inputs":[{"indexed":true,"internalType":"uint256","name":"projectId","type":"uint256"},{"indexed":false,"internalType":"uint8","name":"score","type":"uint8"},{"indexed":false,"internalType":"uint8","name":"lastScore","type":"uint8"},{"indexed":false,"internalType":"uint8","name":"avgScore","type":"uint8"},{"indexed":false,"internalType":"uint32","name":"testCount","type":"uint32"},{"indexed":false,"internalType":"uint8","name":"criticalCount","type":"uint8"},{"indexed":false,"internalType":"uint256","name":"rewardAmount","type":"uint256"},{"indexed":false,"internalType":"uint256","name":"penaltyAmount","type":"uint256"},{"indexed":false,"internalType":"bytes32","name":"newExploitHash","type":"bytes32"}],"name":"TestResultRecorded","type":"event"},{"anonymous":false,"inputs":[{"indexed":true,"internalType":"address","name":"oldTester","type":"address"},{"indexed":true,"internalType":"address","name":"newTester","type":"address"}],"name":"TesterUpdated","type":"event"},{"inputs":[],"name":"admin","outputs":[{"internalType":"address","name":"","type":"address"}],"stateMutability":"view","type":"function"},{"inputs":[{"internalType":"uint256","name":"","type":"uint256"},{"internalType":"address","name":"","type":"address"}],"name":"bounties","outputs":[{"internalType":"uint256","name":"","type":"uint256"}],"stateMutability":"view","type":"function"},{"inputs":[{"internalType":"uint256","name":"projectId","type":"uint256"}],"name":"claimBounty","outputs":[],"stateMutability":"nonpayable","type":"function"},{"inputs":[{"internalType":"uint256","name":"projectId","type":"uint256"},{"internalType":"address","name":"researcher","type":"address"},{"internalType":"uint256","name":"amount","type":"uint256"},{"internalType":"bytes32","name":"exploitHash","type":"bytes32"}],"name":"createBountyPayout","outputs":[],"stateMutability":"nonpayable","type":"function"},{"inputs":[{"internalType":"uint8","name":"minScore","type":"uint8"},{"internalType":"uint16","name":"payoutRateBps","type":"uint16"},{"internalType":"uint16","name":"penaltyRateBps","type":"uint16"},{"internalType":"uint256","name":"initialDeposit","type":"uint256"}],"name":"createProject","outputs":[{"internalType":"uint256","name":"","type":"uint256"}],"stateMutability":"nonpayable","type":"function"},{"inputs":[{"internalType":"uint256","name":"projectId","type":"uint256"},{"internalType":"uint256","name":"amount","type":"uint256"}],"name":"depositEscrow","outputs":[],"stateMutability":"nonpayable","type":"function"},{"inputs":[{"internalType":"uint256","name":"projectId","type":"uint256"}],"name":"getBalances","outputs":[{"internalType":"uint256","name":"escrow","type":"uint256"},{"internalType":"uint256","name":"reward","type":"uint256"},{"internalType":"uint256","name":"bountyPool","type":"uint256"}],"stateMutability":"view","type":"function"},{"inputs":[{"internalType":"uint256","name":"projectId","type":"uint256"}],"name":"getMetrics","outputs":[{"internalType":"uint8","name":"lastScore","type":"uint8"},{"internalType":"uint8","name":"avgScore","type":"uint8"},{"internalType":"uint32","name":"testCount","type":"uint32"},{"internalType":"uint64","name":"lastTestTime","type":"uint64"}],"stateMutability":"view","type":"function"},{"inputs":[{"internalType":"uint256","name":"projectId","type":"uint256"}],"name":"getProject","outputs":[{"components":[{"internalType":"address","name":"owner","type":"address"},{"internalType":"address","name":"token","type":"address"},{"internalType":"uint8","name":"minScore","type":"uint8"},{"internalType":"uint16","name":"payoutRateBps","type":"uint16"},{"internalType":"uint16","name":"penaltyRateBps","type":"uint16"},{"internalType":"uint256","name":"escrowBalance","type":"uint256"},{"internalType":"uint256","name":"rewardBalance","type":"uint256"},{"internalType":"uint256","name":"bountyPoolBalance","type":"uint256"},{"internalType":"uint8","name":"lastScore","type":"uint8"},{"internalType":"uint8","name":"avgScore","type":"uint8"},{"internalType":"uint32","name":"testCount","type":"uint32"},{"internalType":"uint64","name":"lastTestTime","type":"uint64"},{"internalType":"bool","name":"active","type":"bool"}],"internalType":"struct LupinSafetyVault.Project","name":"project","type":"tuple"}],"stateMutability":"view","type":"function"},{"inputs":[],"name":"globalPaused","outputs":[{"internalType":"bool","name":"","type":"bool"}],"stateMutability":"view","type":"function"},{"inputs":[],"name":"nextProjectId","outputs":[{"internalType":"uint256","name":"","type":"uint256"}],"stateMutability":"view","type":"function"},{"inputs":[],"name":"pauseGlobal","outputs":[],"stateMutability":"nonpayable","type":"function"},{"inputs":[{"internalType":"uint256","name":"projectId","type":"uint256"}],"name":"pauseProject","outputs":[],"stateMutability":"nonpayable","type":"function"},{"inputs":[{"internalType":"uint256","name":"","type":"uint256"}],"name":"projects","outputs":[{"internalType":"address","name":"owner","type":"address"},{"internalType":"address","name":"token","type":"address"},{"internalType":"uint8","name":"minScore","type":"uint8"},{"internalType":"uint16","name":"payoutRateBps","type":"uint16"},{"internalType":"uint16","name":"penaltyRateBps","type":"uint16"},{"internalType":"uint256","name":"escrowBalance","type":"uint256"},{"internalType":"uint256","name":"rewardBalance","type":"uint256"},{"internalType":"uint256","name":"bountyPoolBalance","type":"uint256"},{"internalType":"uint8","name":"lastScore","type":"uint8"},{"internalType":"uint8","name":"avgScore","type":"uint8"},{"internalType":"uint32","name":"testCount","type":"uint32"},{"internalType":"uint64","name":"lastTestTime","type":"uint64"},{"internalType":"bool","name":"active","type":"bool"}],"stateMutability":"view","type":"function"},{"inputs":[{"internalType":"uint256","name":"projectId","type":"uint256"},{"internalType":"uint8","name":"score","type":"uint8"},{"internalType":"uint8","name":"criticalCount","type":"uint8"},{"internalType":"bytes32","name":"newExploitHash","type":"bytes32"}],"name":"recordTestResult","outputs":[],"stateMutability":"nonpayable","type":"function"},{"inputs":[{"internalType":"address","name":"newAdmin","type":"address"}],"name":"setAdmin","outputs":[],"stateMutability":"nonpayable","type":"function"},{"inputs":[{"internalType":"address","name":"newTester","type":"address"}],"name":"setTester","outputs":[],"stateMutability":"nonpayable","type":"function"},{"inputs":[],"name":"tester","outputs":[{"internalType":"address","name":"","type":"address"}],"stateMutability":"view","type":"function"},{"inputs":[],"name":"unpauseGlobal","outputs":[],"stateMutability":"nonpayable","type":"function"},{"inputs":[{"internalType":"uint256","name":"projectId","type":"uint256"}],"name":"unpauseProject","outputs":[],"stateMutability":"nonpayable","type":"function"},{"inputs":[{"internalType":"uint256","name":"projectId","type":"uint256"},{"internalType":"uint8","name":"minScore","type":"uint8"},{"internalType":"uint16","name":"payoutRateBps","type":"uint16"},{"internalType":"uint16","name":"penaltyRateBps","type":"uint16"}],"name":"updateProjectConfig","outputs":[],"stateMutability":"nonpayable","type":"function"},{"inputs":[],"name":"usdc","outputs":[{"internalType":"contract IERC20","name":"","type":"address"}],"stateMutability":"view","type":"function"},{"inputs":[{"internalType":"uint256","name":"projectId","type":"uint256"}],"name":"withdrawRewards","outputs":[],"stateMutability":"nonpayable","type":"function"}],"evm":{"bytecode":{"linkReferences":{},"object":"6080604052600160045534801562000015575f80fd5b5060405162002419380380620024198339810160408190526200003891620000e2565b60015f556001600160a01b038116620000975760405162461bcd60e51b815260206004820152601b60248201527f5553444320616464726573732063616e6e6f74206265207a65726f0000000000604482015260640160405180910390fd5b60018054336001600160a01b03199182168117909255600280548216909217909155600380549091166001600160a01b03929092169190911790556005805460ff1916905562000111565b5f60208284031215620000f3575f80fd5b81516001600160a01b03811681146200010a575f80fd5b9392505050565b6122fa806200011f5f395ff3fe608060405234801561000f575f80fd5b5060043610610148575f3560e01c8063704b6c02116100bf578063d9394d8311610079578063d9394d83146103cc578063e935b7b1146103df578063f0f3f2c8146103e8578063f42332c814610408578063f739edd71461041b578063f851a4401461042e575f80fd5b8063704b6c021461032b5780638308abd41461033e5780639342c8f41461035157806394636af71461036457806398e9a952146103775780639a8e44951461037f575f80fd5b80632002f13f116101105780632002f13f146102575780633e413bee1461028f57806344021ad7146102ba578063490adbaf146102cd57806361a552dc146102fb578063673797c214610318575f80fd5b806309e3ee781461014c5780630f717a6314610161578063107046bd1461017457806311e0003a1461023c578063154ae6b61461024f575b5f80fd5b61015f61015a366004611e45565b610441565b005b61015f61016f366004611e8f565b610677565b61021a610182366004611e8f565b60066020525f90815260409020805460018201546002830154600384015460048501546005909501546001600160a01b03948516959484169460ff600160a01b860481169561ffff600160a81b8204811696600160b81b9092041694909390929181811691610100810482169163ffffffff620100008304169167ffffffffffffffff600160301b82041691600160701b909104168d565b6040516102339d9c9b9a99989796959493929190611ea6565b60405180910390f35b61015f61024a366004611f3f565b610785565b61015f61093e565b610281610265366004611f75565b600760209081525f928352604080842090915290825290205481565b604051908152602001610233565b6003546102a2906001600160a01b031681565b6040516001600160a01b039091168152602001610233565b61015f6102c8366004611e8f565b61099c565b6102e06102db366004611e8f565b610ad1565b60408051938452602084019290925290820152606001610233565b6005546103089060ff1681565b6040519015158152602001610233565b610281610326366004611f9f565b610b2c565b61015f610339366004611fe7565b610fb6565b6002546102a2906001600160a01b031681565b61015f61035f366004611e8f565b611087565b61015f610372366004612007565b6111f6565b61015f611440565b61039261038d366004611e8f565b6114a1565b6040805160ff958616815294909316602085015263ffffffff9091169183019190915267ffffffffffffffff166060820152608001610233565b61015f6103da366004611e8f565b611520565b61028160045481565b6103fb6103f6366004611e8f565b611634565b604051610233919061203f565b61015f61041636600461212a565b6117b2565b61015f610429366004611fe7565b6119b2565b6001546102a2906001600160a01b031681565b60055460ff161561046d5760405162461bcd60e51b81526004016104649061215b565b60405180910390fd5b5f8481526006602052604090205484906001600160a01b03166104a25760405162461bcd60e51b815260040161046490612192565b5f818152600660205260409020546001600160a01b031633146104d75760405162461bcd60e51b8152600401610464906121c2565b60648460ff1611156105255760405162461bcd60e51b815260206004820152601760248201527606d696e53636f7265206d757374206265203c3d2031303604c1b6044820152606401610464565b6127108361ffff16111561057b5760405162461bcd60e51b815260206004820152601f60248201527f7061796f757452617465427073206d757374206265203c3d2031305f303030006044820152606401610464565b6127108261ffff1611156105d15760405162461bcd60e51b815260206004820181905260248201527f70656e616c747952617465427073206d757374206265203c3d2031305f3030306044820152606401610464565b5f85815260066020908152604091829020600101805462ffffff60a01b1916600160a01b60ff891690810261ffff60a81b191691909117600160a81b61ffff8981169182029290921761ffff60b81b1916600160b81b928916928302179093558451918252928101919091529182015285907f8831d11d792714b8a22a4a3b200b36921c6ff4d1c2e6381d74618ce1406c7cbe9060600160405180910390a25050505050565b60055460ff161561069a5760405162461bcd60e51b81526004016104649061215b565b5f8181526006602052604090205481906001600160a01b03166106cf5760405162461bcd60e51b815260040161046490612192565b5f828152600660205260409020546001600160a01b03163314806106fd57506001546001600160a01b031633145b61073f5760405162461bcd60e51b815260206004820152601360248201527227b7363c9037bbb732b91037b91030b236b4b760691b6044820152606401610464565b5f82815260066020526040808220600501805460ff60701b191690555183917f9f505f325627bdd7f5a6dd8bcceecdc48a989f647561427d61d35b7a50703f7991a25050565b60055460ff16156107a85760405162461bcd60e51b81526004016104649061215b565b6107b0611a83565b5f8281526006602052604090205482906001600160a01b03166107e55760405162461bcd60e51b815260040161046490612192565b5f818152600660205260409020546001600160a01b0316331461081a5760405162461bcd60e51b8152600401610464906121c2565b5f838152600660205260409020600501548390600160701b900460ff166108775760405162461bcd60e51b8152602060048201526011602482015270141c9bda9958dd081a5cc81c185d5cd959607a1b6044820152606401610464565b5f83116108bb5760405162461bcd60e51b81526020600482015260126024820152710416d6f756e74206d757374206265203e20360741b6044820152606401610464565b6003546108d3906001600160a01b0316333086611aab565b5f84815260066020526040812060020180548592906108f3908490612202565b9091555050604051838152339085907f9a57bbb234b70fc26fbb5c8d65f00c0bba23b19c4a7bb1aedb26c7a04269f7479060200160405180910390a3505061093a60015f55565b5050565b6001546001600160a01b031633146109685760405162461bcd60e51b81526004016104649061221b565b6005805460ff191690556040517fd47973dd192c0c30454470a9dbe5c3afb68f03d611242d7c047c3f5c69cabe5b905f90a1565b60055460ff16156109bf5760405162461bcd60e51b81526004016104649061215b565b6109c7611a83565b5f8181526006602052604090205481906001600160a01b03166109fc5760405162461bcd60e51b815260040161046490612192565b5f82815260076020908152604080832033845290915290205480610a575760405162461bcd60e51b81526020600482015260126024820152714e6f20626f756e747920746f20636c61696d60701b6044820152606401610464565b5f838152600760209081526040808320338085529252822091909155600354610a8c916001600160a01b039091169083611b12565b604051818152339084907f23c972d46b3251ae358ad69fb3761ef8f5c38c5131502ed9e9bde9b129da92159060200160405180910390a35050610ace60015f55565b50565b5f81815260066020526040812054819081906001600160a01b0316610b085760405162461bcd60e51b815260040161046490612192565b5050505f908152600660205260409020600281015460038201546004909201549092565b6005545f9060ff1615610b515760405162461bcd60e51b81526004016104649061215b565b610b59611a83565b60648560ff161115610ba75760405162461bcd60e51b815260206004820152601760248201527606d696e53636f7265206d757374206265203c3d2031303604c1b6044820152606401610464565b6127108461ffff161115610bfd5760405162461bcd60e51b815260206004820152601f60248201527f7061796f757452617465427073206d757374206265203c3d2031305f303030006044820152606401610464565b6127108361ffff161115610c535760405162461bcd60e51b815260206004820181905260248201527f70656e616c747952617465427073206d757374206265203c3d2031305f3030306044820152606401610464565b5f8211610ca25760405162461bcd60e51b815260206004820152601a60248201527f696e697469616c4465706f736974206d757374206265203e20300000000000006044820152606401610464565b600480549081905f610cb38361223f565b9091555050600354610cd0906001600160a01b0316333086611aab565b604051806101a00160405280336001600160a01b0316815260200160035f9054906101000a90046001600160a01b03166001600160a01b031681526020018760ff1681526020018661ffff1681526020018561ffff1681526020018481526020015f81526020015f81526020015f60ff1681526020015f60ff1681526020015f63ffffffff1681526020015f67ffffffffffffffff1681526020016001151581525060065f8381526020019081526020015f205f820151815f015f6101000a8154816001600160a01b0302191690836001600160a01b031602179055506020820151816001015f6101000a8154816001600160a01b0302191690836001600160a01b0316021790555060408201518160010160146101000a81548160ff021916908360ff16021790555060608201518160010160156101000a81548161ffff021916908361ffff16021790555060808201518160010160176101000a81548161ffff021916908361ffff16021790555060a0820151816002015560c0820151816003015560e08201518160040155610100820151816005015f6101000a81548160ff021916908360ff1602179055506101208201518160050160016101000a81548160ff021916908360ff1602179055506101408201518160050160026101000a81548163ffffffff021916908363ffffffff1602179055506101608201518160050160066101000a81548167ffffffffffffffff021916908367ffffffffffffffff16021790555061018082015181600501600e6101000a81548160ff02191690831515021790555090505060035f9054906101000a90046001600160a01b03166001600160a01b0316336001600160a01b0316827f76e453b7f6014596f696f0de5d42285d6ebc6a936e8d167d98aa57da6522128289898989604051610f9b949392919060ff94909416845261ffff928316602085015291166040830152606082015260800190565b60405180910390a49050610fae60015f55565b949350505050565b6001546001600160a01b03163314610fe05760405162461bcd60e51b81526004016104649061221b565b6001600160a01b0381166110365760405162461bcd60e51b815260206004820152601c60248201527f41646d696e2063616e6e6f74206265207a65726f2061646472657373000000006044820152606401610464565b600180546001600160a01b038381166001600160a01b0319831681179093556040519116919082907f101b8081ff3b56bbf45deb824d86a3b0fd38b7e3dd42421105cf8abe9106db0b905f90a35050565b60055460ff16156110aa5760405162461bcd60e51b81526004016104649061215b565b6110b2611a83565b5f8181526006602052604090205481906001600160a01b03166110e75760405162461bcd60e51b815260040161046490612192565b5f818152600660205260409020546001600160a01b0316331461111c5760405162461bcd60e51b8152600401610464906121c2565b5f828152600660205260409020600301546111725760405162461bcd60e51b81526020600482015260166024820152754e6f207265776172647320746f20776974686472617760501b6044820152606401610464565b5f8281526006602052604081206003808201805492549390555490916001600160a01b03908116916111a691168284611b12565b806001600160a01b0316847f82ca8a937aadf7110bbbb9bba3be6546aebffbdb673452af8caedde341f5efd0846040516111e291815260200190565b60405180910390a3505050610ace60015f55565b60055460ff16156112195760405162461bcd60e51b81526004016104649061215b565b611221611a83565b5f8481526006602052604090205484906001600160a01b03166112565760405162461bcd60e51b815260040161046490612192565b5f818152600660205260409020546001600160a01b0316331461128b5760405162461bcd60e51b8152600401610464906121c2565b6001600160a01b0384166112eb5760405162461bcd60e51b815260206004820152602160248201527f526573656172636865722063616e6e6f74206265207a65726f206164647265736044820152607360f81b6064820152608401610464565b5f831161132f5760405162461bcd60e51b81526020600482015260126024820152710416d6f756e74206d757374206265203e20360741b6044820152606401610464565b5f8581526006602052604090206004015483111561138f5760405162461bcd60e51b815260206004820152601860248201527f496e73756666696369656e7420626f756e747920706f6f6c00000000000000006044820152606401610464565b5f85815260066020526040812060040180548592906113af908490612257565b90915550505f8581526007602090815260408083206001600160a01b0388168452909152812080548592906113e5908490612202565b909155505060408051848152602081018490526001600160a01b0386169187917f8d4851cfe69c4793deae15625a7621127ea5fa4b147d3a3980c96db326979fa6910160405180910390a35061143a60015f55565b50505050565b6001546001600160a01b0316331461146a5760405162461bcd60e51b81526004016104649061221b565b6005805460ff191660011790556040517f8bee704f8fac40aa39037f01e8543b45869662bcf7daebf0e4893c14c4d8559c905f90a1565b5f818152600660205260408120548190819081906001600160a01b03166114da5760405162461bcd60e51b815260040161046490612192565b5050505f918252506006602052604090206005015460ff8082169261010083049091169162010000810463ffffffff1691600160301b90910467ffffffffffffffff1690565b60055460ff16156115435760405162461bcd60e51b81526004016104649061215b565b5f8181526006602052604090205481906001600160a01b03166115785760405162461bcd60e51b815260040161046490612192565b5f828152600660205260409020546001600160a01b03163314806115a657506001546001600160a01b031633145b6115e85760405162461bcd60e51b815260206004820152601360248201527227b7363c9037bbb732b91037b91030b236b4b760691b6044820152606401610464565b5f82815260066020526040808220600501805460ff60701b1916600160701b1790555183917ff87e623aca5b8bef3f4a5f8a900ecd4c0367b153c2d476a78b65a68661ba7a2591a25050565b604080516101a0810182525f80825260208201819052918101829052606081018290526080810182905260a0810182905260c0810182905260e0810182905261010081018290526101208101829052610140810182905261016081018290526101808101919091525f828152600660205260409020546001600160a01b03166116cf5760405162461bcd60e51b815260040161046490612192565b505f9081526006602090815260409182902082516101a08101845281546001600160a01b03908116825260018301549081169382019390935260ff600160a01b840481169482019490945261ffff600160a81b840481166060830152600160b81b9093049092166080830152600281015460a0830152600381015460c0830152600481015460e083015260050154808316610100808401919091528104831661012083015263ffffffff6201000082041661014083015267ffffffffffffffff600160301b820416610160830152600160701b9004909116151561018082015290565b60055460ff16156117d55760405162461bcd60e51b81526004016104649061215b565b6002546001600160a01b0316331461181d5760405162461bcd60e51b815260206004820152600b60248201526a27b7363c903a32b9ba32b960a91b6044820152606401610464565b5f8481526006602052604090205484906001600160a01b03166118525760405162461bcd60e51b815260040161046490612192565b5f858152600660205260409020600501548590600160701b900460ff166118af5760405162461bcd60e51b8152602060048201526011602482015270141c9bda9958dd081a5cc81c185d5cd959607a1b6044820152606401610464565b60648560ff1611156118fa5760405162461bcd60e51b8152602060048201526014602482015273053636f7265206d757374206265203c3d203130360641b6044820152606401610464565b5f8681526006602052604090206119118187611b48565b5f8061191e838989611c74565b60058501546040805160ff8d8116825280841660208301526101008085048216938301939093526201000090930463ffffffff166060820152918b16608083015260a0820184905260c0820183905260e082018a90529294509092508a917f70e4f5746ef2d2ea577618d8e0bf2f63eb97d4a0dc1aa2da61cebf3b4cf5fae2910160405180910390a2505050505050505050565b6001546001600160a01b031633146119dc5760405162461bcd60e51b81526004016104649061221b565b6001600160a01b038116611a325760405162461bcd60e51b815260206004820152601d60248201527f5465737465722063616e6e6f74206265207a65726f20616464726573730000006044820152606401610464565b600280546001600160a01b038381166001600160a01b0319831681179093556040519116919082907fa4aea4cc51f249aa51dfe52d357e4a5987d893245a866c6456a104cc90234086905f90a35050565b60025f5403611aa557604051633ee5aeb560e01b815260040160405180910390fd5b60025f55565b6040516001600160a01b03848116602483015283811660448301526064820183905261143a9186918216906323b872dd906084015b604051602081830303815290604052915060e01b6020820180516001600160e01b038381831617835250505050611db3565b6040516001600160a01b03838116602483015260448201839052611b4391859182169063a9059cbb90606401611ae0565b505050565b600582015462010000900463ffffffff165f03611b7a5760058201805461ff00191661010060ff841602179055611bf6565b60058201545f90611b989062010000900463ffffffff16600161226a565b600584015463ffffffff9182169160ff80861692611bc49262010000820416916101009091041661228e565b611bce9190612202565b611bd891906122a5565b60058401805460ff9092166101000261ff0019909216919091179055505b60058201805460ff191660ff83161780825560019190600290611c2690849062010000900463ffffffff1661226a565b82546101009290920a63ffffffff818102199093169190921691909102179055505060050180546dffffffffffffffff0000000000001916600160301b4267ffffffffffffffff1602179055565b60028301545f908190808203611c90575f809250925050611dab565b600186015460ff600160a01b909104811690861610611d1d5760018601545f90611cc590600160a81b900461ffff168361228e565b9050611cd3612710826122a5565b935081841115611ce1578193505b83876002015f828254611cf49190612257565b9250508190555083876003015f828254611d0e9190612202565b909155505f9350611da9915050565b60018601545f9061271090611d3d90600160b81b900461ffff168461228e565b611d4791906122a5565b90505f8560ff1611611d595780611d64565b611d6481600261228e565b925081831115611d72578192505b82876002015f828254611d859190612257565b9250508190555082876004015f828254611d9f9190612202565b909155505f945050505b505b935093915050565b5f8060205f8451602086015f885af180611dd2576040513d5f823e3d81fd5b50505f513d91508115611de9578060011415611df6565b6001600160a01b0384163b155b1561143a57604051635274afe760e01b81526001600160a01b0385166004820152602401610464565b803560ff81168114611e2f575f80fd5b919050565b803561ffff81168114611e2f575f80fd5b5f805f8060808587031215611e58575f80fd5b84359350611e6860208601611e1f565b9250611e7660408601611e34565b9150611e8460608601611e34565b905092959194509250565b5f60208284031215611e9f575f80fd5b5035919050565b6001600160a01b038e811682528d16602082015260ff8c16604082015261ffff8b811660608301528a1660808201526101a081018960a08301528860c08301528760e0830152611efc61010083018860ff169052565b60ff861661012083015263ffffffff851661014083015267ffffffffffffffff84166101608301528215156101808301529e9d5050505050505050505050505050565b5f8060408385031215611f50575f80fd5b50508035926020909101359150565b80356001600160a01b0381168114611e2f575f80fd5b5f8060408385031215611f86575f80fd5b82359150611f9660208401611f5f565b90509250929050565b5f805f8060808587031215611fb2575f80fd5b611fbb85611e1f565b9350611fc960208601611e34565b9250611fd760408601611e34565b9396929550929360600135925050565b5f60208284031215611ff7575f80fd5b61200082611f5f565b9392505050565b5f805f806080858703121561201a575f80fd5b8435935061202a60208601611f5f565b93969395505050506040820135916060013590565b81516001600160a01b031681526101a08101602083015161206b60208401826001600160a01b03169052565b506040830151612080604084018260ff169052565b506060830151612096606084018261ffff169052565b5060808301516120ac608084018261ffff169052565b5060a083015160a083015260c083015160c083015260e083015160e0830152610100808401516120e08285018260ff169052565b50506101208381015160ff16908301526101408084015163ffffffff16908301526101608084015167ffffffffffffffff1690830152610180928301511515929091019190915290565b5f805f806080858703121561213d575f80fd5b8435935061214d60208601611e1f565b9250611fd760408601611e1f565b6020808252601b908201527f436f6e747261637420697320676c6f62616c6c79207061757365640000000000604082015260600190565b602080825260169082015275141c9bda9958dd08191bd95cc81b9bdd08195e1a5cdd60521b604082015260600190565b60208082526012908201527127b7363c90383937b532b1ba1037bbb732b960711b604082015260600190565b634e487b7160e01b5f52601160045260245ffd5b80820180821115612215576122156121ee565b92915050565b6020808252600a908201526927b7363c9030b236b4b760b11b604082015260600190565b5f60018201612250576122506121ee565b5060010190565b81810381811115612215576122156121ee565b63ffffffff818116838216019080821115612287576122876121ee565b5092915050565b8082028115828204841417612215576122156121ee565b5f826122bf57634e487b7160e01b5f52601260045260245ffd5b50049056fea2646970667358221220fb8bf655560346f1fe8719444614cb5a7a8cb93e64d67ac748c20c9e655c1ecd64736f6c63430008140033","opcodes":"PUSH1 0x80 PUSH1 0x40 MSTORE PUSH1 0x1 PUSH1 0x4 SSTORE CALLVALUE DUP1 ISZERO PUSH3 0x15 JUMPI PUSH0 DUP1 REVERT JUMPDEST POP PUSH1 0x40 MLOAD PUSH3 0x2419 CODESIZE SUB DUP1 PUSH3 0x2419 DUP4 CODECOPY DUP2 ADD PUSH1 0x40 DUP2 SWAP1 MSTORE PUSH3 0x38 SWAP2 PUSH3 0xE2 JUMP JUMPDEST PUSH1 0x1 PUSH0 SSTORE PUSH1 0x1 PUSH1 0x1 PUSH1 0xA0 SHL SUB DUP2 AND PUSH3 0x97 JUMPI PUSH1 0x40 MLOAD PUSH3 0x461BCD PUSH1 0xE5 SHL DUP2 MSTORE PUSH1 0x20 PUSH1 0x4 DUP3 ADD MSTORE PUSH1 0x1B PUSH1 0x24 DUP3 ADD MSTORE PUSH32 0x5553444320616464726573732063616E6E6F74206265207A65726F0000000000 PUSH1 0x44 DUP3 ADD MSTORE PUSH1 0x64 ADD PUSH1 0x40 MLOAD DUP1 SWAP2 SUB SWAP1 REVERT JUMPDEST PUSH1 0x1 DUP1 SLOAD CALLER PUSH1 0x1 PUSH1 0x1 PUSH1 0xA0 SHL SUB NOT SWAP2 DUP3 AND DUP2 OR SWAP1 SWAP3 SSTORE PUSH1 0x2 DUP1 SLOAD DUP3 AND SWAP1 SWAP3 OR SWAP1 SWAP2 SSTORE PUSH1 0x3 DUP1 SLOAD SWAP1 SWAP2 AND PUSH1 0x1 PUSH1 0x1 PUSH1 0xA0 SHL SUB SWAP3 SWAP1 SWAP3 AND SWAP2 SWAP1 SWAP2 OR SWAP1 SSTORE PUSH1 0x5 DUP1 SLOAD PUSH1 0xFF NOT AND SWAP1 SSTORE PUSH3 0x111 JUMP JUMPDEST PUSH0 PUSH1 0x20 DUP3 DUP5 SUB SLT ISZERO PUSH3 0xF3 JUMPI PUSH0 DUP1 REVERT JUMPDEST DUP2 MLOAD PUSH1 0x1 PUSH1 0x1 PUSH1 0xA0 SHL SUB DUP2 AND DUP2 EQ PUSH3 0x10A JUMPI PUSH0 DUP1 REVERT JUMPDEST SWAP4 SWAP3 POP POP POP JUMP JUMPDEST PUSH2 0x22FA DUP1 PUSH3 0x11F PUSH0 CODECOPY PUSH0 RETURN INVALID PUSH1 0x80 PUSH1 0x40 MSTORE CALLVALUE DUP1 ISZERO PUSH2 0xF JUMPI PUSH0 DUP1 REVERT JUMPDEST POP PUSH1 0x4 CALLDATASIZE LT PUSH2 0x148 JUMPI PUSH0 CALLDATALOAD PUSH1 0xE0 SHR DUP1 PUSH4 0x704B6C02 GT PUSH2 0xBF JUMPI DUP1 PUSH4 0xD9394D83 GT PUSH2 0x79 JUMPI DUP1 PUSH4 0xD9394D83 EQ PUSH2 0x3CC JUMPI DUP1 PUSH4 0xE935B7B1 EQ PUSH2 0x3DF JUMPI DUP1 PUSH4 0xF0F3F2C8 EQ PUSH2 0x3E8 JUMPI DUP1 PUSH4 0xF42332C8 EQ PUSH2 0x408 JUMPI DUP1 PUSH4 0xF739EDD7 EQ PUSH2 0x41B JUMPI DUP1 PUSH4 0xF851A440 EQ PUSH2 0x42E JUMPI PUSH0 DUP1 REVERT JUMPDEST DUP1 PUSH4 0x704B6C02 EQ PUSH2 0x32B JUMPI DUP1 PUSH4 0x8308ABD4 EQ PUSH2 0x33E JUMPI DUP1 PUSH4 0x9342C8F4 EQ PUSH2 0x351 JUMPI DUP1 PUSH4 0x94636AF7 EQ PUSH2 0x364 JUMPI DUP1 PUSH4 0x98E9A952 EQ PUSH2 0x377 JUMPI DUP1 PUSH4 0x9A8E4495 EQ PUSH2 0x37F JUMPI PUSH0 DUP1 REVERT JUMPDEST DUP1 PUSH4 0x2002F13F GT PUSH2 0x110 JUMPI DUP1 PUSH4 0x2002F13F EQ PUSH2 0x257 JUMPI DUP1 PUSH4 0x3E413BEE EQ PUSH2 0x28F JUMPI DUP1 PUSH4 0x44021AD7 EQ PUSH2 0x2BA JUMPI DUP1 PUSH4 0x490ADBAF EQ PUSH2 0x2CD JUMPI DUP1 PUSH4 0x61A552DC EQ PUSH2 0x2FB JUMPI DUP1 PUSH4 0x673797C2 EQ PUSH2 0x318 JUMPI PUSH0 DUP1 REVERT JUMPDEST DUP1 PUSH4 0x9E3EE78 EQ PUSH2 0x14C JUMPI DUP1 PUSH4 0xF717A63 EQ PUSH2 0x161 JUMPI DUP1 PUSH4 0x107046BD EQ PUSH2 0x174 JUMPI DUP1 PUSH4 0x11E0003A EQ PUSH2 0x23C JUMPI DUP1 PUSH4 0x154AE6B6 EQ PUSH2 0x24F JUMPI JUMPDEST PUSH0 DUP1 REVERT JUMPDEST PUSH2 0x15F PUSH2 0x15A CALLDATASIZE PUSH1 0x4 PUSH2 0x1E45 JUMP JUMPDEST PUSH2 0x441 JUMP JUMPDEST STOP JUMPDEST PUSH2 0x15F PUSH2 0x16F CALLDATASIZE PUSH1 0x4 PUSH2 0x1E8F JUMP JUMPDEST PUSH2 0x677 JUMP JUMPDEST PUSH2 0x21A PUSH2 0x182 CALLDATASIZE PUSH1 0x4 PUSH2 0x1E8F JUMP JUMPDEST PUSH1 0x6 PUSH1 0x20 MSTORE PUSH0 SWAP1 DUP2 MSTORE PUSH1 0x40 SWAP1 KECCAK256 DUP1 SLOAD PUSH1 0x1 DUP3 ADD SLOAD PUSH1 0x2 DUP4 ADD SLOAD PUSH1 0x3 DUP5 ADD SLOAD PUSH1 0x4 DUP6 ADD SLOAD PUSH1 0x5 SWAP1 SWAP6 ADD SLOAD PUSH1 0x1 PUSH1 0x1 PUSH1 0xA0 SHL SUB SWAP5 DUP6 AND SWAP6 SWAP5 DUP5 AND SWAP5 PUSH1 0xFF PUSH1 0x1 PUSH1 0xA0 SHL DUP7 DIV DUP2 AND SWAP6 PUSH2 0xFFFF PUSH1 0x1 PUSH1 0xA8 SHL DUP3 DIV DUP2 AND SWAP7 PUSH1 0x1 PUSH1 0xB8 SHL SWAP1 SWAP3 DIV AND SWAP5 SWAP1 SWAP4 SWAP1 SWAP3 SWAP2 DUP2 DUP2 AND SWAP2 PUSH2 0x100 DUP2 DIV DUP3 AND SWAP2 PUSH4 0xFFFFFFFF PUSH3 0x10000 DUP4 DIV AND SWAP2 PUSH8 0xFFFFFFFFFFFFFFFF PUSH1 0x1 PUSH1 0x30 SHL DUP3 DIV AND SWAP2 PUSH1 0x1 PUSH1 0x70 SHL SWAP1 SWAP2 DIV AND DUP14 JUMP JUMPDEST PUSH1 0x40 MLOAD PUSH2 0x233 SWAP14 SWAP13 SWAP12 SWAP11 SWAP10 SWAP9 SWAP8 SWAP7 SWAP6 SWAP5 SWAP4 SWAP3 SWAP2 SWAP1 PUSH2 0x1EA6 JUMP JUMPDEST PUSH1 0x40 MLOAD DUP1 SWAP2 SUB SWAP1 RETURN JUMPDEST PUSH2 0x15F PUSH2 0x24A CALLDATASIZE PUSH1 0x4 PUSH2 0x1F3F JUMP JUMPDEST PUSH2 0x785 JUMP JUMPDEST PUSH2 0x15F PUSH2 0x93E JUMP JUMPDEST PUSH2 0x281 PUSH2 0x265 CALLDATASIZE PUSH1 0x4 PUSH2 0x1F75 JUMP JUMPDEST PUSH1 0x7 PUSH1 0x20 SWAP1 DUP2 MSTORE PUSH0 SWAP3 DUP4 MSTORE PUSH1 0x40 DUP1 DUP5 KECCAK256 SWAP1 SWAP2 MSTORE SWAP1 DUP3 MSTORE SWAP1 KECCAK256 SLOAD DUP2 JUMP JUMPDEST PUSH1 0x40 MLOAD SWAP1 DUP2 MSTORE PUSH1 0x20 ADD PUSH2 0x233 JUMP JUMPDEST PUSH1 0x3 SLOAD PUSH2 0x2A2 SWAP1 PUSH1 0x1 PUSH1 0x1 PUSH1 0xA0 SHL SUB AND DUP2 JUMP JUMPDEST PUSH1 0x40 MLOAD PUSH1 0x1 PUSH1 0x1 PUSH1 0xA0 SHL SUB SWAP1 SWAP2 AND DUP2 MSTORE PUSH1 0x20 ADD PUSH2 0x233 JUMP JUMPDEST PUSH2 0x15F PUSH2 0x2C8 CALLDATASIZE PUSH1 0x4 PUSH2 0x1E8F JUMP JUMPDEST PUSH2 0x99C JUMP JUMPDEST PUSH2 0x2E0 PUSH2 0x2DB CALLDATASIZE PUSH1 0x4 PUSH2 0x1E8F JUMP JUMPDEST PUSH2 0xAD1 JUMP JUMPDEST PUSH1 0x40 DUP1 MLOAD SWAP4 DUP5 MSTORE PUSH1 0x20 DUP5 ADD SWAP3 SWAP1 SWAP3 MSTORE SWAP1 DUP3 ADD MSTORE PUSH1 0x60 ADD PUSH2 0x233 JUMP JUMPDEST PUSH1 0x5 SLOAD PUSH2 0x308 SWAP1 PUSH1 0xFF AND DUP2 JUMP JUMPDEST PUSH1 0x40 MLOAD SWAP1 ISZERO ISZERO DUP2 MSTORE PUSH1 0x20 ADD PUSH2 0x233 JUMP JUMPDEST PUSH2 0x281 PUSH2 0x326 CALLDATASIZE PUSH1 0x4 PUSH2 0x1F9F JUMP JUMPDEST PUSH2 0xB2C JUMP JUMPDEST PUSH2 0x15F PUSH2 0x339 CALLDATASIZE PUSH1 0x4 PUSH2 0x1FE7 JUMP JUMPDEST PUSH2 0xFB6 JUMP JUMPDEST PUSH1 0x2 SLOAD PUSH2 0x2A2 SWAP1 PUSH1 0x1 PUSH1 0x1 PUSH1 0xA0 SHL SUB AND DUP2 JUMP JUMPDEST PUSH2 0x15F PUSH2 0x35F CALLDATASIZE PUSH1 0x4 PUSH2 0x1E8F JUMP JUMPDEST PUSH2 0x1087 JUMP JUMPDEST PUSH2 0x15F PUSH2 0x372 CALLDATASIZE PUSH1 0x4 PUSH2 0x2007 JUMP JUMPDEST PUSH2 0x11F6 JUMP JUMPDEST PUSH2 0x15F PUSH2 0x1440 JUMP JUMPDEST PUSH2 0x392 PUSH2 0x38D CALLDATASIZE PUSH1 0x4 PUSH2 0x1E8F JUMP JUMPDEST PUSH2 0x14A1 JUMP JUMPDEST PUSH1 0x40 DUP1 MLOAD PUSH1 0xFF SWAP6 DUP7 AND DUP2 MSTORE SWAP5 SWAP1 SWAP4 AND PUSH1 0x20 DUP6 ADD MSTORE PUSH4 0xFFFFFFFF SWAP1 SWAP2 AND SWAP2 DUP4 ADD SWAP2 SWAP1 SWAP2 MSTORE PUSH8 0xFFFFFFFFFFFFFFFF AND PUSH1 0x60 DUP3 ADD MSTORE PUSH1 0x80 ADD PUSH2 0x233 JUMP JUMPDEST PUSH2 0x15F PUSH2 0x3DA CALLDATASIZE PUSH1 0x4 PUSH2 0x1E8F JUMP JUMPDEST PUSH2 0x1520 JUMP JUMPDEST PUSH2 0x281 PUSH1 0x4 SLOAD DUP2 JUMP JUMPDEST PUSH2 0x3FB PUSH2 0x3F6 CALLDATASIZE PUSH1 0x4 PUSH2 0x1E8F JUMP JUMPDEST PUSH2 0x1634 JUMP JUMPDEST PUSH1 0x40 MLOAD PUSH2 0x233 SWAP2 SWAP1 PUSH2 0x203F JUMP JUMPDEST PUSH2 0x15F PUSH2 0x416 CALLDATASIZE PUSH1 0x4 PUSH2 0x212A JUMP JUMPDEST PUSH2 0x17B2 JUMP JUMPDEST PUSH2 0x15F PUSH2 0x429 CALLDATASIZE PUSH1 0x4 PUSH2 0x1FE7 JUMP JUMPDEST PUSH2 0x19B2 JUMP JUMPDEST PUSH1 0x1 SLOAD PUSH2 0x2A2 SWAP1 PUSH1 0x1 PUSH1 0x1 PUSH1 0xA0 SHL SUB AND DUP2 JUMP JUMPDEST PUSH1 0x5 SLOAD PUSH1 0xFF AND ISZERO PUSH2 0x46D JUMPI PUSH1 0x40 MLOAD PUSH3 0x461BCD PUSH1 0xE5 SHL DUP2 MSTORE PUSH1 0x4 ADD PUSH2 0x464 SWAP1 PUSH2 0x215B JUMP JUMPDEST PUSH1 0x40 MLOAD DUP1 SWAP2 SUB SWAP1 REVERT JUMPDEST PUSH0 DUP5 DUP2 MSTORE PUSH1 0x6 PUSH1 0x20 MSTORE PUSH1 0x40 SWAP1 KECCAK256 SLOAD DUP5 SWAP1 PUSH1 0x1 PUSH1 0x1 PUSH1 0xA0 SHL SUB AND PUSH2 0x4A2 JUMPI PUSH1 0x40 MLOAD PUSH3 0x461BCD PUSH1 0xE5 SHL DUP2 MSTORE PUSH1 0x4 ADD PUSH2 0x464 SWAP1 PUSH2 0x2192 JUMP JUMPDEST PUSH0 DUP2 DUP2 MSTORE PUSH1 0x6 PUSH1 0x20 MSTORE PUSH1 0x40 SWAP1 KECCAK256 SLOAD PUSH1 0x1 PUSH1 0x1 PUSH1 0xA0 SHL SUB AND CALLER EQ PUSH2 0x4D7 JUMPI PUSH1 0x40 MLOAD PUSH3 0x461BCD PUSH1 0xE5 SHL DUP2 MSTORE PUSH1 0x4 ADD PUSH2 0x464 SWAP1 PUSH2 0x21C2 JUMP JUMPDEST PUSH1 0x64 DUP5 PUSH1 0xFF AND GT ISZERO PUSH2 0x525 JUMPI PUSH1 0x40 MLOAD PUSH3 0x461BCD PUSH1 0xE5 SHL DUP2 MSTORE PUSH1 0x20 PUSH1 0x4 DUP3 ADD MSTORE PUSH1 0x17 PUSH1 0x24 DUP3 ADD MSTORE PUSH23 0x6D696E53636F7265206D757374206265203C3D2031303 PUSH1 0x4C SHL PUSH1 0x44 DUP3 ADD MSTORE PUSH1 0x64 ADD PUSH2 0x464 JUMP JUMPDEST PUSH2 0x2710 DUP4 PUSH2 0xFFFF AND GT ISZERO PUSH2 0x57B JUMPI PUSH1 0x40 MLOAD PUSH3 0x461BCD PUSH1 0xE5 SHL DUP2 MSTORE PUSH1 0x20 PUSH1 0x4 DUP3 ADD MSTORE PUSH1 0x1F PUSH1 0x24 DUP3 ADD MSTORE PUSH32 0x7061796F757452617465427073206D757374206265203C3D2031305F30303000 PUSH1 0x44 DUP3 ADD MSTORE PUSH1 0x64 ADD PUSH2 0x464 JUMP JUMPDEST PUSH2 0x2710 DUP3 PUSH2 0xFFFF AND GT ISZERO PUSH2 0x5D1 JUMPI PUSH1 0x40 MLOAD PUSH3 0x461BCD PUSH1 0xE5 SHL DUP2 MSTORE PUSH1 0x20 PUSH1 0x4 DUP3 ADD DUP2 SWAP1 MSTORE PUSH1 0x24 DUP3 ADD MSTORE PUSH32 0x70656E616C747952617465427073206D757374206265203C3D2031305F303030 PUSH1 0x44 DUP3 ADD MSTORE PUSH1 0x64 ADD PUSH2 0x464 JUMP JUMPDEST PUSH0 DUP6 DUP2 MSTORE PUSH1 0x6 PUSH1 0x20 SWAP1 DUP2 MSTORE PUSH1 0x40 SWAP2 DUP3 SWAP1 KECCAK256 PUSH1 0x1 ADD DUP1 SLOAD PUSH3 0xFFFFFF PUSH1 0xA0 SHL NOT AND PUSH1 0x1 PUSH1 0xA0 SHL PUSH1 0xFF DUP10 AND SWAP1 DUP2 MUL PUSH2 0xFFFF PUSH1 0xA8 SHL NOT AND SWAP2 SWAP1 SWAP2 OR PUSH1 0x1 PUSH1 0xA8 SHL PUSH2 0xFFFF DUP10 DUP2 AND SWAP2 DUP3 MUL SWAP3 SWAP1 SWAP3 OR PUSH2 0xFFFF PUSH1 0xB8 SHL NOT AND PUSH1 0x1 PUSH1 0xB8 SHL SWAP3 DUP10 AND SWAP3 DUP4 MUL OR SWAP1 SWAP4 SSTORE DUP5 MLOAD SWAP2 DUP3 MSTORE SWAP3 DUP2 ADD SWAP2 SWAP1 SWAP2 MSTORE SWAP2 DUP3 ADD MSTORE DUP6 SWAP1 PUSH32 0x8831D11D792714B8A22A4A3B200B36921C6FF4D1C2E6381D74618CE1406C7CBE SWAP1 PUSH1 0x60 ADD PUSH1 0x40 MLOAD DUP1 SWAP2 SUB SWAP1 LOG2 POP POP POP POP POP JUMP JUMPDEST PUSH1 0x5 SLOAD PUSH1 0xFF AND ISZERO PUSH2 0x69A JUMPI PUSH1 0x40 MLOAD PUSH3 0x461BCD PUSH1 0xE5 SHL DUP2 MSTORE PUSH1 0x4 ADD PUSH2 0x464 SWAP1 PUSH2 0x215B JUMP JUMPDEST PUSH0 DUP2 DUP2 MSTORE PUSH1 0x6 PUSH1 0x20 MSTORE PUSH1 0x40 SWAP1 KECCAK256 SLOAD DUP2 SWAP1 PUSH1 0x1 PUSH1 0x1 PUSH1 0xA0 SHL SUB AND PUSH2 0x6CF JUMPI PUSH1 0x40 MLOAD PUSH3 0x461BCD PUSH1 0xE5 SHL DUP2 MSTORE PUSH1 0x4 ADD PUSH2 0x464 SWAP1 PUSH2 0x2192 JUMP JUMPDEST PUSH0 DUP3 DUP2 MSTORE PUSH1 0x6 PUSH1 0x20 MSTORE PUSH1 0x40 SWAP1 KECCAK256 SLOAD PUSH1 0x1 PUSH1 0x1 PUSH1 0xA0 SHL SUB AND CALLER EQ DUP1 PUSH2 0x6FD JUMPI POP PUSH1 0x1 SLOAD PUSH1 0x1 PUSH1 0x1 PUSH1 0xA0 SHL SUB AND CALLER EQ JUMPDEST PUSH2 0x73F JUMPI PUSH1 0x40 MLOAD PUSH3 0x461BCD PUSH1 0xE5 SHL DUP2 MSTORE PUSH1 0x20 PUSH1 0x4 DUP3 ADD MSTORE PUSH1 0x13 PUSH1 0x24 DUP3 ADD MSTORE PUSH19 0x27B7363C9037BBB732B91037B91030B236B4B7 PUSH1 0x69 SHL PUSH1 0x44 DUP3 ADD MSTORE PUSH1 0x64 ADD PUSH2 0x464 JUMP JUMPDEST PUSH0 DUP3 DUP2 MSTORE PUSH1 0x6 PUSH1 0x20 MSTORE PUSH1 0x40 DUP1 DUP3 KECCAK256 PUSH1 0x5 ADD DUP1 SLOAD PUSH1 0xFF PUSH1 0x70 SHL NOT AND SWAP1 SSTORE MLOAD DUP4 SWAP2 PUSH32 0x9F505F325627BDD7F5A6DD8BCCEECDC48A989F647561427D61D35B7A50703F79 SWAP2 LOG2 POP POP JUMP JUMPDEST PUSH1 0x5 SLOAD PUSH1 0xFF AND ISZERO PUSH2 0x7A8 JUMPI PUSH1 0x40 MLOAD PUSH3 0x461BCD PUSH1 0xE5 SHL DUP2 MSTORE PUSH1 0x4 ADD PUSH2 0x464 SWAP1 PUSH2 0x215B JUMP JUMPDEST PUSH2 0x7B0 PUSH2 0x1A83 JUMP JUMPDEST PUSH0 DUP3 DUP2 MSTORE PUSH1 0x6 PUSH1 0x20 MSTORE PUSH1 0x40 SWAP1 KECCAK256 SLOAD DUP3 SWAP1 PUSH1 0x1 PUSH1 0x1 PUSH1 0xA0 SHL SUB AND PUSH2 0x7E5 JUMPI PUSH1 0x40 MLOAD PUSH3 0x461BCD PUSH1 0xE5 SHL DUP2 MSTORE PUSH1 0x4 ADD PUSH2 0x464 SWAP1 PUSH2 0x2192 JUMP JUMPDEST PUSH0 DUP2 DUP2 MSTORE PUSH1 0x6 PUSH1 0x20 MSTORE PUSH1 0x40 SWAP1 KECCAK256 SLOAD PUSH1 0x1 PUSH1 0x1 PUSH1 0xA0 SHL SUB AND CALLER EQ PUSH2 0x81A JUMPI PUSH1 0x40 MLOAD PUSH3 0x461BCD PUSH1 0xE5 SHL DUP2 MSTORE PUSH1 0x4 ADD PUSH2 0x464 SWAP1 PUSH2 0x21C2 JUMP JUMPDEST PUSH0 DUP4 DUP2 MSTORE PUSH1 0x6 PUSH1 0x20 MSTORE PUSH1 0x40 SWAP1 KECCAK256 PUSH1 0x5 ADD SLOAD DUP4 SWAP1 PUSH1 0x1 PUSH1 0x70 SHL SWAP1 DIV PUSH1 0xFF AND PUSH2 0x877 JUMPI PUSH1 0x40 MLOAD PUSH3 0x461BCD PUSH1 0xE5 SHL DUP2 MSTORE PUSH1 0x20 PUSH1 0x4 DUP3 ADD MSTORE PUSH1 0x11 PUSH1 0x24 DUP3 ADD MSTORE PUSH17 0x141C9BDA9958DD081A5CC81C185D5CD959 PUSH1 0x7A SHL PUSH1 0x44 DUP3 ADD MSTORE PUSH1 0x64 ADD PUSH2 0x464 JUMP JUMPDEST PUSH0 DUP4 GT PUSH2 0x8BB JUMPI PUSH1 0x40 MLOAD PUSH3 0x461BCD PUSH1 0xE5 SHL DUP2 MSTORE PUSH1 0x20 PUSH1 0x4 DUP3 ADD MSTORE PUSH1 0x12 PUSH1 0x24 DUP3 ADD MSTORE PUSH18 0x416D6F756E74206D757374206265203E203 PUSH1 0x74 SHL PUSH1 0x44 DUP3 ADD MSTORE PUSH1 0x64 ADD PUSH2 0x464 JUMP JUMPDEST PUSH1 0x3 SLOAD PUSH2 0x8D3 SWAP1 PUSH1 0x1 PUSH1 0x1 PUSH1 0xA0 SHL SUB AND CALLER ADDRESS DUP7 PUSH2 0x1AAB JUMP JUMPDEST PUSH0 DUP5 DUP2 MSTORE PUSH1 0x6 PUSH1 0x20 MSTORE PUSH1 0x40 DUP2 KECCAK256 PUSH1 0x2 ADD DUP1 SLOAD DUP6 SWAP3 SWAP1 PUSH2 0x8F3 SWAP1 DUP5 SWAP1 PUSH2 0x2202 JUMP JUMPDEST SWAP1 SWAP2 SSTORE POP POP PUSH1 0x40 MLOAD DUP4 DUP2 MSTORE CALLER SWAP1 DUP6 SWAP1 PUSH32 0x9A57BBB234B70FC26FBB5C8D65F00C0BBA23B19C4A7BB1AEDB26C7A04269F747 SWAP1 PUSH1 0x20 ADD PUSH1 0x40 MLOAD DUP1 SWAP2 SUB SWAP1 LOG3 POP POP PUSH2 0x93A PUSH1 0x1 PUSH0 SSTORE JUMP JUMPDEST POP POP JUMP JUMPDEST PUSH1 0x1 SLOAD PUSH1 0x1 PUSH1 0x1 PUSH1 0xA0 SHL SUB AND CALLER EQ PUSH2 0x968 JUMPI PUSH1 0x40 MLOAD PUSH3 0x461BCD PUSH1 0xE5 SHL DUP2 MSTORE PUSH1 0x4 ADD PUSH2 0x464 SWAP1 PUSH2 0x221B JUMP JUMPDEST PUSH1 0x5 DUP1 SLOAD PUSH1 0xFF NOT AND SWAP1 SSTORE PUSH1 0x40 MLOAD PUSH32 0xD47973DD192C0C30454470A9DBE5C3AFB68F03D611242D7C047C3F5C69CABE5B SWAP1 PUSH0 SWAP1 LOG1 JUMP JUMPDEST PUSH1 0x5 SLOAD PUSH1 0xFF AND ISZERO PUSH2 0x9BF JUMPI PUSH1 0x40 MLOAD PUSH3 0x461BCD PUSH1 0xE5 SHL DUP2 MSTORE PUSH1 0x4 ADD PUSH2 0x464 SWAP1 PUSH2 0x215B JUMP JUMPDEST PUSH2 0x9C7 PUSH2 0x1A83 JUMP JUMPDEST PUSH0 DUP2 DUP2 MSTORE PUSH1 0x6 PUSH1 0x20 MSTORE PUSH1 0x40 SWAP1 KECCAK256 SLOAD DUP2 SWAP1 PUSH1 0x1 PUSH1 0x1 PUSH1 0xA0 SHL SUB AND PUSH2 0x9FC JUMPI PUSH1 0x40 MLOAD PUSH3 0x461BCD PUSH1 0xE5 SHL DUP2 MSTORE PUSH1 0x4 ADD PUSH2 0x464 SWAP1 PUSH2 0x2192 JUMP JUMPDEST PUSH0 DUP3 DUP2 MSTORE PUSH1 0x7 PUSH1 0x20 SWAP1 DUP2 MSTORE PUSH1 0x40 DUP1 DUP4 KECCAK256 CALLER DUP5 MSTORE SWAP1 SWAP2 MSTORE SWAP1 KECCAK256 SLOAD DUP1 PUSH2 0xA57 JUMPI PUSH1 0x40 MLOAD PUSH3 0x461BCD PUSH1 0xE5 SHL DUP2 MSTORE PUSH1 0x20 PUSH1 0x4 DUP3 ADD MSTORE PUSH1 0x12 PUSH1 0x24 DUP3 ADD MSTORE PUSH18 0x4E6F20626F756E747920746F20636C61696D PUSH1 0x70 SHL PUSH1 0x44 DUP3 ADD MSTORE PUSH1 0x64 ADD PUSH2 0x464 JUMP JUMPDEST PUSH0 DUP4 DUP2 MSTORE PUSH1 0x7 PUSH1 0x20 SWAP1 DUP2 MSTORE PUSH1 0x40 DUP1 DUP4 KECCAK256 CALLER DUP1 DUP6 MSTORE SWAP3 MSTORE DUP3 KECCAK256 SWAP2 SWAP1 SWAP2 SSTORE PUSH1 0x3 SLOAD PUSH2 0xA8C SWAP2 PUSH1 0x1 PUSH1 0x1 PUSH1 0xA0 SHL SUB SWAP1 SWAP2 AND SWAP1 DUP4 PUSH2 0x1B12 JUMP JUMPDEST PUSH1 0x40 MLOAD DUP2 DUP2 MSTORE CALLER SWAP1 DUP5 SWAP1 PUSH32 0x23C972D46B3251AE358AD69FB3761EF8F5C38C5131502ED9E9BDE9B129DA9215 SWAP1 PUSH1 0x20 ADD PUSH1 0x40 MLOAD DUP1 SWAP2 SUB SWAP1 LOG3 POP POP PUSH2 0xACE PUSH1 0x1 PUSH0 SSTORE JUMP JUMPDEST POP JUMP JUMPDEST PUSH0 DUP2 DUP2 MSTORE PUSH1 0x6 PUSH1 0x20 MSTORE PUSH1 0x40 DUP2 KECCAK256 SLOAD DUP2 SWAP1 DUP2 SWAP1 PUSH1 0x1 PUSH1 0x1 PUSH1 0xA0 SHL SUB AND PUSH2 0xB08 JUMPI PUSH1 0x40 MLOAD PUSH3 0x461BCD PUSH1 0xE5 SHL DUP2 MSTORE PUSH1 0x4 ADD PUSH2 0x464 SWAP1 PUSH2 0x2192 JUMP JUMPDEST POP POP POP PUSH0 SWAP1 DUP2 MSTORE PUSH1 0x6 PUSH1 0x20 MSTORE PUSH1 0x40 SWAP1 KECCAK256 PUSH1 0x2 DUP2 ADD SLOAD PUSH1 0x3 DUP3 ADD SLOAD PUSH1 0x4 SWAP1 SWAP3 ADD SLOAD SWAP1 SWAP3 JUMP JUMPDEST PUSH1 0x5 SLOAD PUSH0 SWAP1 PUSH1 0xFF AND ISZERO PUSH2 0xB51 JUMPI PUSH1 0x40 MLOAD PUSH3 0x461BCD PUSH1 0xE5 SHL DUP2 MSTORE PUSH1 0x4 ADD PUSH2 0x464 SWAP1 PUSH2 0x215B JUMP JUMPDEST PUSH2 0xB59 PUSH2 0x1A83 JUMP JUMPDEST PUSH1 0x64 DUP6 PUSH1 0xFF AND GT ISZERO PUSH2 0xBA7 JUMPI PUSH1 0x40 MLOAD PUSH3 0x461BCD PUSH1 0xE5 SHL DUP2 MSTORE PUSH1 0x20 PUSH1 0x4 DUP3 ADD MSTORE PUSH1 0x17 PUSH1 0x24 DUP3 ADD MSTORE PUSH23 0x6D696E53636F7265206D757374206265203C3D2031303 PUSH1 0x4C SHL PUSH1 0x44 DUP3 ADD MSTORE PUSH1 0x64 ADD PUSH2 0x464 JUMP JUMPDEST PUSH2 0x2710 DUP5 PUSH2 0xFFFF AND GT ISZERO PUSH2 0xBFD JUMPI PUSH1 0x40 MLOAD PUSH3 0x461BCD PUSH1 0xE5 SHL DUP2 MSTORE PUSH1 0x20 PUSH1 0x4 DUP3 ADD MSTORE PUSH1 0x1F PUSH1 0x24 DUP3 ADD MSTORE PUSH32 0x7061796F757452617465427073206D757374206265203C3D2031305F30303000 PUSH1 0x44 DUP3 ADD MSTORE PUSH1 0x64 ADD PUSH2 0x464 JUMP JUMPDEST PUSH2 0x2710 DUP4 PUSH2 0xFFFF AND GT ISZERO PUSH2 0xC53 JUMPI PUSH1 0x40 MLOAD PUSH3 0x461BCD PUSH1 0xE5 SHL DUP2 MSTORE PUSH1 0x20 PUSH1 0x4 DUP3 ADD DUP2 SWAP1 MSTORE PUSH1 0x24 DUP3 ADD MSTORE PUSH32 0x70656E616C747952617465427073206D757374206265203C3D2031305F303030 PUSH1 0x44 DUP3 ADD MSTORE PUSH1 0x64 ADD PUSH2 0x464 JUMP JUMPDEST PUSH0 DUP3 GT PUSH2 0xCA2 JUMPI PUSH1 0x40 MLOAD PUSH3 0x461BCD PUSH1 0xE5 SHL DUP2 MSTORE PUSH1 0x20 PUSH1 0x4 DUP3 ADD MSTORE PUSH1 0x1A PUSH1 0x24 DUP3 ADD MSTORE PUSH32 0x696E697469616C4465706F736974206D757374206265203E2030000000000000 PUSH1 0x44 DUP3 ADD MSTORE PUSH1 0x64 ADD PUSH2 0x464 JUMP JUMPDEST PUSH1 0x4 DUP1 SLOAD SWAP1 DUP2 SWAP1 PUSH0 PUSH2 0xCB3 DUP4 PUSH2 0x223F JUMP JUMPDEST SWAP1 SWAP2 SSTORE POP POP PUSH1 0x3 SLOAD PUSH2 0xCD0 SWAP1 PUSH1 0x1 PUSH1 0x1 PUSH1 0xA0 SHL SUB AND CALLER ADDRESS DUP7 PUSH2 0x1AAB JUMP JUMPDEST PUSH1 0x40 MLOAD DUP1 PUSH2 0x1A0 ADD PUSH1 0x40 MSTORE DUP1 CALLER PUSH1 0x1 PUSH1 0x1 PUSH1 0xA0 SHL SUB AND DUP2 MSTORE PUSH1 0x20 ADD PUSH1 0x3 PUSH0 SWAP1 SLOAD SWAP1 PUSH2 0x100 EXP SWAP1 DIV PUSH1 0x1 PUSH1 0x1 PUSH1 0xA0 SHL SUB AND PUSH1 0x1 PUSH1 0x1 PUSH1 0xA0 SHL SUB AND DUP2 MSTORE PUSH1 0x20 ADD DUP8 PUSH1 0xFF AND DUP2 MSTORE PUSH1 0x20 ADD DUP7 PUSH2 0xFFFF AND DUP2 MSTORE PUSH1 0x20 ADD DUP6 PUSH2 0xFFFF AND DUP2 MSTORE PUSH1 0x20 ADD DUP5 DUP2 MSTORE PUSH1 0x20 ADD PUSH0 DUP2 MSTORE PUSH1 0x20 ADD PUSH0 DUP2 MSTORE PUSH1 0x20 ADD PUSH0 PUSH1 0xFF AND DUP2 MSTORE PUSH1 0x20 ADD PUSH0 PUSH1 0xFF AND DUP2 MSTORE PUSH1 0x20 ADD PUSH0 PUSH4 0xFFFFFFFF AND DUP2 MSTORE PUSH1 0x20 ADD PUSH0 PUSH8 0xFFFFFFFFFFFFFFFF AND DUP2 MSTORE PUSH1 0x20 ADD PUSH1 0x1 ISZERO ISZERO DUP2 MSTORE POP PUSH1 0x6 PUSH0 DUP4 DUP2 MSTORE PUSH1 0x20 ADD SWAP1 DUP2 MSTORE PUSH1 0x20 ADD PUSH0 KECCAK256 PUSH0 DUP3 ADD MLOAD DUP2 PUSH0 ADD PUSH0 PUSH2 0x100 EXP DUP2 SLOAD DUP2 PUSH1 0x1 PUSH1 0x1 PUSH1 0xA0 SHL SUB MUL NOT AND SWAP1 DUP4 PUSH1 0x1 PUSH1 0x1 PUSH1 0xA0 SHL SUB AND MUL OR SWAP1 SSTORE POP PUSH1 0x20 DUP3 ADD MLOAD DUP2 PUSH1 0x1 ADD PUSH0 PUSH2 0x100 EXP DUP2 SLOAD DUP2 PUSH1 0x1 PUSH1 0x1 PUSH1 0xA0 SHL SUB MUL NOT AND SWAP1 DUP4 PUSH1 0x1 PUSH1 0x1 PUSH1 0xA0 SHL SUB AND MUL OR SWAP1 SSTORE POP PUSH1 0x40 DUP3 ADD MLOAD DUP2 PUSH1 0x1 ADD PUSH1 0x14 PUSH2 0x100 EXP DUP2 SLOAD DUP2 PUSH1 0xFF MUL NOT AND SWAP1 DUP4 PUSH1 0xFF AND MUL OR SWAP1 SSTORE POP PUSH1 0x60 DUP3 ADD MLOAD DUP2 PUSH1 0x1 ADD PUSH1 0x15 PUSH2 0x100 EXP DUP2 SLOAD DUP2 PUSH2 0xFFFF MUL NOT AND SWAP1 DUP4 PUSH2 0xFFFF AND MUL OR SWAP1 SSTORE POP PUSH1 0x80 DUP3 ADD MLOAD DUP2 PUSH1 0x1 ADD PUSH1 0x17 PUSH2 0x100 EXP DUP2 SLOAD DUP2 PUSH2 0xFFFF MUL NOT AND SWAP1 DUP4 PUSH2 0xFFFF AND MUL OR SWAP1 SSTORE POP PUSH1 0xA0 DUP3 ADD MLOAD DUP2 PUSH1 0x2 ADD SSTORE PUSH1 0xC0 DUP3 ADD MLOAD DUP2 PUSH1 0x3 ADD SSTORE PUSH1 0xE0 DUP3 ADD MLOAD DUP2 PUSH1 0x4 ADD SSTORE PUSH2 0x100 DUP3 ADD MLOAD DUP2 PUSH1 0x5 ADD PUSH0 PUSH2 0x100 EXP DUP2 SLOAD DUP2 PUSH1 0xFF MUL NOT AND SWAP1 DUP4 PUSH1 0xFF AND MUL OR SWAP1 SSTORE POP PUSH2 0x120 DUP3 ADD MLOAD DUP2 PUSH1 0x5 ADD PUSH1 0x1 PUSH2 0x100 EXP DUP2 SLOAD DUP2 PUSH1 0xFF MUL NOT AND SWAP1 DUP4 PUSH1 0xFF AND MUL OR SWAP1 SSTORE POP PUSH2 0x140 DUP3 ADD MLOAD DUP2 PUSH1 0x5 ADD PUSH1 0x2 PUSH2 0x100 EXP DUP2 SLOAD DUP2 PUSH4 0xFFFFFFFF MUL NOT AND SWAP1 DUP4 PUSH4 0xFFFFFFFF AND MUL OR SWAP1 SSTORE POP PUSH2 0x160 DUP3 ADD MLOAD DUP2 PUSH1 0x5 ADD PUSH1 0x6 PUSH2 0x100 EXP DUP2 SLOAD DUP2 PUSH8 0xFFFFFFFFFFFFFFFF MUL NOT AND SWAP1 DUP4 PUSH8 0xFFFFFFFFFFFFFFFF AND MUL OR SWAP1 SSTORE POP PUSH2 0x180 DUP3 ADD MLOAD DUP2 PUSH1 0x5 ADD PUSH1 0xE PUSH2 0x100 EXP DUP2 SLOAD DUP2 PUSH1 0xFF MUL NOT AND SWAP1 DUP4 ISZERO ISZERO MUL OR SWAP1 SSTORE POP SWAP1 POP POP PUSH1 0x3 PUSH0 SWAP1 SLOAD SWAP1 PUSH2 0x100 EXP SWAP1 DIV PUSH1 0x1 PUSH1 0x1 PUSH1 0xA0 SHL SUB AND PUSH1 0x1 PUSH1 0x1 PUSH1 0xA0 SHL SUB AND CALLER PUSH1 0x1 PUSH1 0x1 PUSH1 0xA0 SHL SUB AND DUP3 PUSH32 0x76E453B7F6014596F696F0DE5D42285D6EBC6A936E8D167D98AA57DA65221282 DUP10 DUP10 DUP10 DUP10 PUSH1 0x40 MLOAD PUSH2 0xF9B SWAP5 SWAP4 SWAP3 SWAP2 SWAP1 PUSH1 0xFF SWAP5 SWAP1 SWAP5 AND DUP5 MSTORE PUSH2 0xFFFF SWAP3 DUP4 AND PUSH1 0x20 DUP6 ADD MSTORE SWAP2 AND PUSH1 0x40 DUP4 ADD MSTORE PUSH1 0x60 DUP3 ADD MSTORE PUSH1 0x80 ADD SWAP1 JUMP JUMPDEST PUSH1 0x40 MLOAD DUP1 SWAP2 SUB SWAP1 LOG4 SWAP1 POP PUSH2 0xFAE PUSH1 0x1 PUSH0 SSTORE JUMP JUMPDEST SWAP5 SWAP4 POP POP POP POP JUMP JUMPDEST PUSH1 0x1 SLOAD PUSH1 0x1 PUSH1 0x1 PUSH1 0xA0 SHL SUB AND CALLER EQ PUSH2 0xFE0 JUMPI PUSH1 0x40 MLOAD PUSH3 0x461BCD PUSH1 0xE5 SHL DUP2 MSTORE PUSH1 0x4 ADD PUSH2 0x464 SWAP1 PUSH2 0x221B JUMP JUMPDEST PUSH1 0x1 PUSH1 0x1 PUSH1 0xA0 SHL SUB DUP2 AND PUSH2 0x1036 JUMPI PUSH1 0x40 MLOAD PUSH3 0x461BCD PUSH1 0xE5 SHL DUP2 MSTORE PUSH1 0x20 PUSH1 0x4 DUP3 ADD MSTORE PUSH1 0x1C PUSH1 0x24 DUP3 ADD MSTORE PUSH32 0x41646D696E2063616E6E6F74206265207A65726F206164647265737300000000 PUSH1 0x44 DUP3 ADD MSTORE PUSH1 0x64 ADD PUSH2 0x464 JUMP JUMPDEST PUSH1 0x1 DUP1 SLOAD PUSH1 0x1 PUSH1 0x1 PUSH1 0xA0 SHL SUB DUP4 DUP2 AND PUSH1 0x1 PUSH1 0x1 PUSH1 0xA0 SHL SUB NOT DUP4 AND DUP2 OR SWAP1 SWAP4 SSTORE PUSH1 0x40 MLOAD SWAP2 AND SWAP2 SWAP1 DUP3 SWAP1 PUSH32 0x101B8081FF3B56BBF45DEB824D86A3B0FD38B7E3DD42421105CF8ABE9106DB0B SWAP1 PUSH0 SWAP1 LOG3 POP POP JUMP JUMPDEST PUSH1 0x5 SLOAD PUSH1 0xFF AND ISZERO PUSH2 0x10AA JUMPI PUSH1 0x40 MLOAD PUSH3 0x461BCD PUSH1 0xE5 SHL DUP2 MSTORE PUSH1 0x4 ADD PUSH2 0x464 SWAP1 PUSH2 0x215B JUMP JUMPDEST PUSH2 0x10B2 PUSH2 0x1A83 JUMP JUMPDEST PUSH0 DUP2 DUP2 MSTORE PUSH1 0x6 PUSH1 0x20 MSTORE PUSH1 0x40 SWAP1 KECCAK256 SLOAD DUP2 SWAP1 PUSH1 0x1 PUSH1 0x1 PUSH1 0xA0 SHL SUB AND PUSH2 0x10E7 JUMPI PUSH1 0x40 MLOAD PUSH3 0x461BCD PUSH1 0xE5 SHL DUP2 MSTORE PUSH1 0x4 ADD PUSH2 0x464 SWAP1 PUSH2 0x2192 JUMP JUMPDEST PUSH0 DUP2 DUP2 MSTORE PUSH1 0x6 PUSH1 0x20 MSTORE PUSH1 0x40 SWAP1 KECCAK256 SLOAD PUSH1 0x1 PUSH1 0x1 PUSH1 0xA0 SHL SUB AND CALLER EQ PUSH2 0x111C JUMPI PUSH1 0x40 MLOAD PUSH3 0x461BCD PUSH1 0xE5 SHL DUP2 MSTORE PUSH1 0x4 ADD PUSH2 0x464 SWAP1 PUSH2 0x21C2 JUMP JUMPDEST PUSH0 DUP3 DUP2 MSTORE PUSH1 0x6 PUSH1 0x20 MSTORE PUSH1 0x40 SWAP1 KECCAK256 PUSH1 0x3 ADD SLOAD PUSH2 0x1172 JUMPI PUSH1 0x40 MLOAD PUSH3 0x461BCD PUSH1 0xE5 SHL DUP2 MSTORE PUSH1 0x20 PUSH1 0x4 DUP3 ADD MSTORE PUSH1 0x16 PUSH1 0x24 DUP3 ADD MSTORE PUSH22 0x4E6F207265776172647320746F207769746864726177 PUSH1 0x50 SHL PUSH1 0x44 DUP3 ADD MSTORE PUSH1 0x64 ADD PUSH2 0x464 JUMP JUMPDEST PUSH0 DUP3 DUP2 MSTORE PUSH1 0x6 PUSH1 0x20 MSTORE PUSH1 0x40 DUP2 KECCAK256 PUSH1 0x3 DUP1 DUP3 ADD DUP1 SLOAD SWAP3 SLOAD SWAP4 SWAP1 SSTORE SLOAD SWAP1 SWAP2 PUSH1 0x1 PUSH1 0x1 PUSH1 0xA0 SHL SUB SWAP1 DUP2 AND SWAP2 PUSH2 0x11A6 SWAP2 AND DUP3 DUP5 PUSH2 0x1B12 JUMP JUMPDEST DUP1 PUSH1 0x1 PUSH1 0x1 PUSH1 0xA0 SHL SUB AND DUP5 PUSH32 0x82CA8A937AADF7110BBBB9BBA3BE6546AEBFFBDB673452AF8CAEDDE341F5EFD0 DUP5 PUSH1 0x40 MLOAD PUSH2 0x11E2 SWAP2 DUP2 MSTORE PUSH1 0x20 ADD SWAP1 JUMP JUMPDEST PUSH1 0x40 MLOAD DUP1 SWAP2 SUB SWAP1 LOG3 POP POP POP PUSH2 0xACE PUSH1 0x1 PUSH0 SSTORE JUMP JUMPDEST PUSH1 0x5 SLOAD PUSH1 0xFF AND ISZERO PUSH2 0x1219 JUMPI PUSH1 0x40 MLOAD PUSH3 0x461BCD PUSH1 0xE5 SHL DUP2 MSTORE PUSH1 0x4 ADD PUSH2 0x464 SWAP1 PUSH2 0x215B JUMP JUMPDEST PUSH2 0x1221 PUSH2 0x1A83 JUMP JUMPDEST PUSH0 DUP5 DUP2 MSTORE PUSH1 0x6 PUSH1 0x20 MSTORE PUSH1 0x40 SWAP1 KECCAK256 SLOAD DUP5 SWAP1 PUSH1 0x1 PUSH1 0x1 PUSH1 0xA0 SHL SUB AND PUSH2 0x1256 JUMPI PUSH1 0x40 MLOAD PUSH3 0x461BCD PUSH1 0xE5 SHL DUP2 MSTORE PUSH1 0x4 ADD PUSH2 0x464 SWAP1 PUSH2 0x2192 JUMP JUMPDEST PUSH0 DUP2 DUP2 MSTORE PUSH1 0x6 PUSH1 0x20 MSTORE PUSH1 0x40 SWAP1 KECCAK256 SLOAD PUSH1 0x1 PUSH1 0x1 PUSH1 0xA0 SHL SUB AND CALLER EQ PUSH2 0x128B JUMPI PUSH1 0x40 MLOAD PUSH3 0x461BCD PUSH1 0xE5 SHL DUP2 MSTORE PUSH1 0x4 ADD PUSH2 0x464 SWAP1 PUSH2 0x21C2 JUMP JUMPDEST PUSH1 0x1 PUSH1 0x1 PUSH1 0xA0 SHL SUB DUP5 AND PUSH2 0x12EB JUMPI PUSH1 0x40 MLOAD PUSH3 0x461BCD PUSH1 0xE5 SHL DUP2 MSTORE PUSH1 0x20 PUSH1 0x4 DUP3 ADD MSTORE PUSH1 0x21 PUSH1 0x24 DUP3 ADD MSTORE PUSH32 0x526573656172636865722063616E6E6F74206265207A65726F20616464726573 PUSH1 0x44 DUP3 ADD MSTORE PUSH1 0x73 PUSH1 0xF8 SHL PUSH1 0x64 DUP3 ADD MSTORE PUSH1 0x84 ADD PUSH2 0x464 JUMP JUMPDEST PUSH0 DUP4 GT PUSH2 0x132F JUMPI PUSH1 0x40 MLOAD PUSH3 0x461BCD PUSH1 0xE5 SHL DUP2 MSTORE PUSH1 0x20 PUSH1 0x4 DUP3 ADD MSTORE PUSH1 0x12 PUSH1 0x24 DUP3 ADD MSTORE PUSH18 0x416D6F756E74206D757374206265203E203 PUSH1 0x74 SHL PUSH1 0x44 DUP3 ADD MSTORE PUSH1 0x64 ADD PUSH2 0x464 JUMP JUMPDEST PUSH0 DUP6 DUP2 MSTORE PUSH1 0x6 PUSH1 0x20 MSTORE PUSH1 0x40 SWAP1 KECCAK256 PUSH1 0x4 ADD SLOAD DUP4 GT ISZERO PUSH2 0x138F JUMPI PUSH1 0x40 MLOAD PUSH3 0x461BCD PUSH1 0xE5 SHL DUP2 MSTORE PUSH1 0x20 PUSH1 0x4 DUP3 ADD MSTORE PUSH1 0x18 PUSH1 0x24 DUP3 ADD MSTORE PUSH32 0x496E73756666696369656E7420626F756E747920706F6F6C0000000000000000 PUSH1 0x44 DUP3 ADD MSTORE PUSH1 0x64 ADD PUSH2 0x464 JUMP JUMPDEST PUSH0 DUP6 DUP2 MSTORE PUSH1 0x6 PUSH1 0x20 MSTORE PUSH1 0x40 DUP2 KECCAK256 PUSH1 0x4 ADD DUP1 SLOAD DUP6 SWAP3 SWAP1 PUSH2 0x13AF SWAP1 DUP5 SWAP1 PUSH2 0x2257 JUMP JUMPDEST SWAP1 SWAP2 SSTORE POP POP PUSH0 DUP6 DUP2 MSTORE PUSH1 0x7 PUSH1 0x20 SWAP1 DUP2 MSTORE PUSH1 0x40 DUP1 DUP4 KECCAK256 PUSH1 0x1 PUSH1 0x1 PUSH1 0xA0 SHL SUB DUP9 AND DUP5 MSTORE SWAP1 SWAP2 MSTORE DUP2 KECCAK256 DUP1 SLOAD DUP6 SWAP3 SWAP1 PUSH2 0x13E5 SWAP1 DUP5 SWAP1 PUSH2 0x2202 JUMP JUMPDEST SWAP1 SWAP2 SSTORE POP POP PUSH1 0x40 DUP1 MLOAD DUP5 DUP2 MSTORE PUSH1 0x20 DUP2 ADD DUP5 SWAP1 MSTORE PUSH1 0x1 PUSH1 0x1 PUSH1 0xA0 SHL SUB DUP7 AND SWAP2 DUP8 SWAP2 PUSH32 0x8D4851CFE69C4793DEAE15625A7621127EA5FA4B147D3A3980C96DB326979FA6 SWAP2 ADD PUSH1 0x40 MLOAD DUP1 SWAP2 SUB SWAP1 LOG3 POP PUSH2 0x143A PUSH1 0x1 PUSH0 SSTORE JUMP JUMPDEST POP POP POP POP JUMP JUMPDEST PUSH1 0x1 SLOAD PUSH1 0x1 PUSH1 0x1 PUSH1 0xA0 SHL SUB AND CALLER EQ PUSH2 0x146A JUMPI PUSH1 0x40 MLOAD PUSH3 0x461BCD PUSH1 0xE5 SHL DUP2 MSTORE PUSH1 0x4 ADD PUSH2 0x464 SWAP1 PUSH2 0x221B JUMP JUMPDEST PUSH1 0x5 DUP1 SLOAD PUSH1 0xFF NOT AND PUSH1 0x1 OR SWAP1 SSTORE PUSH1 0x40 MLOAD PUSH32 0x8BEE704F8FAC40AA39037F01E8543B45869662BCF7DAEBF0E4893C14C4D8559C SWAP1 PUSH0 SWAP1 LOG1 JUMP JUMPDEST PUSH0 DUP2 DUP2 MSTORE PUSH1 0x6 PUSH1 0x20 MSTORE PUSH1 0x40 DUP2 KECCAK256 SLOAD DUP2 SWAP1 DUP2 SWAP1 DUP2 SWAP1 PUSH1 0x1 PUSH1 0x1 PUSH1 0xA0 SHL SUB AND PUSH2 0x14DA JUMPI PUSH1 0x40 MLOAD PUSH3 0x461BCD PUSH1 0xE5 SHL DUP2 MSTORE PUSH1 0x4 ADD PUSH2 0x464 SWAP1 PUSH2 0x2192 JUMP JUMPDEST POP POP POP PUSH0 SWAP2 DUP3 MSTORE POP PUSH1 0x6 PUSH1 0x20 MSTORE PUSH1 0x40 SWAP1 KECCAK256 PUSH1 0x5 ADD SLOAD PUSH1 0xFF DUP1 DUP3 AND SWAP3 PUSH2 0x100 DUP4 DIV SWAP1 SWAP2 AND SWAP2 PUSH3 0x10000 DUP2 DIV PUSH4 0xFFFFFFFF AND SWAP2 PUSH1 0x1 PUSH1 0x30 SHL SWAP1 SWAP2 DIV PUSH8 0xFFFFFFFFFFFFFFFF AND SWAP1 JUMP JUMPDEST PUSH1 0x5 SLOAD PUSH1 0xFF AND ISZERO PUSH2 0x1543 JUMPI PUSH1 0x40 MLOAD PUSH3 0x461BCD PUSH1 0xE5 SHL DUP2 MSTORE PUSH1 0x4 ADD PUSH2 0x464 SWAP1 PUSH2 0x215B JUMP JUMPDEST PUSH0 DUP2 DUP2 MSTORE PUSH1 0x6 PUSH1 0x20 MSTORE PUSH1 0x40 SWAP1 KECCAK256 SLOAD DUP2 SWAP1 PUSH1 0x1 PUSH1 0x1 PUSH1 0xA0 SHL SUB AND PUSH2 0x1578 JUMPI PUSH1 0x40 MLOAD PUSH3 0x461BCD PUSH1 0xE5 SHL DUP2 MSTORE PUSH1 0x4 ADD PUSH2 0x464 SWAP1 PUSH2 0x2192 JUMP JUMPDEST PUSH0 DUP3 DUP2 MSTORE PUSH1 0x6 PUSH1 0x20 MSTORE PUSH1 0x40 SWAP1 KECCAK256 SLOAD PUSH1 0x1 PUSH1 0x1 PUSH1 0xA0 SHL SUB AND CALLER EQ DUP1 PUSH2 0x15A6 JUMPI POP PUSH1 0x1 SLOAD PUSH1 0x1 PUSH1 0x1 PUSH1 0xA0 SHL SUB AND CALLER EQ JUMPDEST PUSH2 0x15E8 JUMPI PUSH1 0x40 MLOAD PUSH3 0x461BCD PUSH1 0xE5 SHL DUP2 MSTORE PUSH1 0x20 PUSH1 0x4 DUP3 ADD MSTORE PUSH1 0x13 PUSH1 0x24 DUP3 ADD MSTORE PUSH19 0x27B7363C9037BBB732B91037B91030B236B4B7 PUSH1 0x69 SHL PUSH1 0x44 DUP3 ADD MSTORE PUSH1 0x64 ADD PUSH2 0x464 JUMP JUMPDEST PUSH0 DUP3 DUP2 MSTORE PUSH1 0x6 PUSH1 0x20 MSTORE PUSH1 0x40 DUP1 DUP3 KECCAK256 PUSH1 0x5 ADD DUP1 SLOAD PUSH1 0xFF PUSH1 0x70 SHL NOT AND PUSH1 0x1 PUSH1 0x70 SHL OR SWAP1 SSTORE MLOAD DUP4 SWAP2 PUSH32 0xF87E623ACA5B8BEF3F4A5F8A900ECD4C0367B153C2D476A78B65A68661BA7A25 SWAP2 LOG2 POP POP JUMP JUMPDEST PUSH1 0x40 DUP1 MLOAD PUSH2 0x1A0 DUP2 ADD DUP3 MSTORE PUSH0 DUP1 DUP3 MSTORE PUSH1 0x20 DUP3 ADD DUP2 SWAP1 MSTORE SWAP2 DUP2 ADD DUP3 SWAP1 MSTORE PUSH1 0x60 DUP2 ADD DUP3 SWAP1 MSTORE PUSH1 0x80 DUP2 ADD DUP3 SWAP1 MSTORE PUSH1 0xA0 DUP2 ADD DUP3 SWAP1 MSTORE PUSH1 0xC0 DUP2 ADD DUP3 SWAP1 MSTORE PUSH1 0xE0 DUP2 ADD DUP3 SWAP1 MSTORE PUSH2 0x100 DUP2 ADD DUP3 SWAP1 MSTORE PUSH2 0x120 DUP2 ADD DUP3 SWAP1 MSTORE PUSH2 0x140 DUP2 ADD DUP3 SWAP1 MSTORE PUSH2 0x160 DUP2 ADD DUP3 SWAP1 MSTORE PUSH2 0x180 DUP2 ADD SWAP2 SWAP1 SWAP2 MSTORE PUSH0 DUP3 DUP2 MSTORE PUSH1 0x6 PUSH1 0x20 MSTORE PUSH1 0x40 SWAP1 KECCAK256 SLOAD PUSH1 0x1 PUSH1 0x1 PUSH1 0xA0 SHL SUB AND PUSH2 0x16CF JUMPI PUSH1 0x40 MLOAD PUSH3 0x461BCD PUSH1 0xE5 SHL DUP2 MSTORE PUSH1 0x4 ADD PUSH2 0x464 SWAP1 PUSH2 0x2192 JUMP JUMPDEST POP PUSH0 SWAP1 DUP2 MSTORE PUSH1 0x6 PUSH1 0x20 SWAP1 DUP2 MSTORE PUSH1 0x40 SWAP2 DUP3 SWAP1 KECCAK256 DUP3 MLOAD PUSH2 0x1A0 DUP2 ADD DUP5 MSTORE DUP2 SLOAD PUSH1 0x1 PUSH1 0x1 PUSH1 0xA0 SHL SUB SWAP1 DUP2 AND DUP3 MSTORE PUSH1 0x1 DUP4 ADD SLOAD SWAP1 DUP2 AND SWAP4 DUP3 ADD SWAP4 SWAP1 SWAP4 MSTORE PUSH1 0xFF PUSH1 0x1 PUSH1 0xA0 SHL DUP5 DIV DUP2 AND SWAP5 DUP3 ADD SWAP5 SWAP1 SWAP5 MSTORE PUSH2 0xFFFF PUSH1 0x1 PUSH1 0xA8 SHL DUP5 DIV DUP2 AND PUSH1 0x60 DUP4 ADD MSTORE PUSH1 0x1 PUSH1 0xB8 SHL SWAP1 SWAP4 DIV SWAP1 SWAP3 AND PUSH1 0x80 DUP4 ADD MSTORE PUSH1 0x2 DUP2 ADD SLOAD PUSH1 0xA0 DUP4 ADD MSTORE PUSH1 0x3 DUP2 ADD SLOAD PUSH1 0xC0 DUP4 ADD MSTORE PUSH1 0x4 DUP2 ADD SLOAD PUSH1 0xE0 DUP4 ADD MSTORE PUSH1 0x5 ADD SLOAD DUP1 DUP4 AND PUSH2 0x100 DUP1 DUP5 ADD SWAP2 SWAP1 SWAP2 MSTORE DUP2 DIV DUP4 AND PUSH2 0x120 DUP4 ADD MSTORE PUSH4 0xFFFFFFFF PUSH3 0x10000 DUP3 DIV AND PUSH2 0x140 DUP4 ADD MSTORE PUSH8 0xFFFFFFFFFFFFFFFF PUSH1 0x1 PUSH1 0x30 SHL DUP3 DIV AND PUSH2 0x160 DUP4 ADD MSTORE PUSH1 0x1 PUSH1 0x70 SHL SWAP1 DIV SWAP1 SWAP2 AND ISZERO ISZERO PUSH2 0x180 DUP3 ADD MSTORE SWAP1 JUMP JUMPDEST PUSH1 0x5 SLOAD PUSH1 0xFF AND ISZERO PUSH2 0x17D5 JUMPI PUSH1 0x40 MLOAD PUSH3 0x461BCD PUSH1 0xE5 SHL DUP2 MSTORE PUSH1 0x4 ADD PUSH2 0x464 SWAP1 PUSH2 0x215B JUMP JUMPDEST PUSH1 0x2 SLOAD PUSH1 0x1 PUSH1 0x1 PUSH1 0xA0 SHL SUB AND CALLER EQ PUSH2 0x181D JUMPI PUSH1 0x40 MLOAD PUSH3 0x461BCD PUSH1 0xE5 SHL DUP2 MSTORE PUSH1 0x20 PUSH1 0x4 DUP3 ADD MSTORE PUSH1 0xB PUSH1 0x24 DUP3 ADD MSTORE PUSH11 0x27B7363C903A32B9BA32B9 PUSH1 0xA9 SHL PUSH1 0x44 DUP3 ADD MSTORE PUSH1 0x64 ADD PUSH2 0x464 JUMP JUMPDEST PUSH0 DUP5 DUP2 MSTORE PUSH1 0x6 PUSH1 0x20 MSTORE PUSH1 0x40 SWAP1 KECCAK256 SLOAD DUP5 SWAP1 PUSH1 0x1 PUSH1 0x1 PUSH1 0xA0 SHL SUB AND PUSH2 0x1852 JUMPI PUSH1 0x40 MLOAD PUSH3 0x461BCD PUSH1 0xE5 SHL DUP2 MSTORE PUSH1 0x4 ADD PUSH2 0x464 SWAP1 PUSH2 0x2192 JUMP JUMPDEST PUSH0 DUP6 DUP2 MSTORE PUSH1 0x6 PUSH1 0x20 MSTORE PUSH1 0x40 SWAP1 KECCAK256 PUSH1 0x5 ADD SLOAD DUP6 SWAP1 PUSH1 0x1 PUSH1 0x70 SHL SWAP1 DIV PUSH1 0xFF AND PUSH2 0x18AF JUMPI PUSH1 0x40 MLOAD PUSH3 0x461BCD PUSH1 0xE5 SHL DUP2 MSTORE PUSH1 0x20 PUSH1 0x4 DUP3 ADD MSTORE PUSH1 0x11 PUSH1 0x24 DUP3 ADD MSTORE PUSH17 0x141C9BDA9958DD081A5CC81C185D5CD959 PUSH1 0x7A SHL PUSH1 0x44 DUP3 ADD MSTORE PUSH1 0x64 ADD PUSH2 0x464 JUMP JUMPDEST PUSH1 0x64 DUP6 PUSH1 0xFF AND GT ISZERO PUSH2 0x18FA JUMPI PUSH1 0x40 MLOAD PUSH3 0x461BCD PUSH1 0xE5 SHL DUP2 MSTORE PUSH1 0x20 PUSH1 0x4 DUP3 ADD MSTORE PUSH1 0x14 PUSH1 0x24 DUP3 ADD MSTORE PUSH20 0x53636F7265206D757374206265203C3D2031303 PUSH1 0x64 SHL PUSH1 0x44 DUP3 ADD MSTORE PUSH1 0x64 ADD PUSH2 0x464 JUMP JUMPDEST PUSH0 DUP7 DUP2 MSTORE PUSH1 0x6 PUSH1 0x20 MSTORE PUSH1 0x40 SWAP1 KECCAK256 PUSH2 0x1911 DUP2 DUP8 PUSH2 0x1B48 JUMP JUMPDEST PUSH0 DUP1 PUSH2 0x191E DUP4 DUP10 DUP10 PUSH2 0x1C74 JUMP JUMPDEST PUSH1 0x5 DUP6 ADD SLOAD PUSH1 0x40 DUP1 MLOAD PUSH1 0xFF DUP14 DUP2 AND DUP3 MSTORE DUP1 DUP5 AND PUSH1 0x20 DUP4 ADD MSTORE PUSH2 0x100 DUP1 DUP6 DIV DUP3 AND SWAP4 DUP4 ADD SWAP4 SWAP1 SWAP4 MSTORE PUSH3 0x10000 SWAP1 SWAP4 DIV PUSH4 0xFFFFFFFF AND PUSH1 0x60 DUP3 ADD MSTORE SWAP2 DUP12 AND PUSH1 0x80 DUP4 ADD MSTORE PUSH1 0xA0 DUP3 ADD DUP5 SWAP1 MSTORE PUSH1 0xC0 DUP3 ADD DUP4 SWAP1 MSTORE PUSH1 0xE0 DUP3 ADD DUP11 SWAP1 MSTORE SWAP3 SWAP5 POP SWAP1 SWAP3 POP DUP11 SWAP2 PUSH32 0x70E4F5746EF2D2EA577618D8E0BF2F63EB97D4A0DC1AA2DA61CEBF3B4CF5FAE2 SWAP2 ADD PUSH1 0x40 MLOAD DUP1 SWAP2 SUB SWAP1 LOG2 POP POP POP POP POP POP POP POP POP JUMP JUMPDEST PUSH1 0x1 SLOAD PUSH1 0x1 PUSH1 0x1 PUSH1 0xA0 SHL SUB AND CALLER EQ PUSH2 0x19DC JUMPI PUSH1 0x40 MLOAD PUSH3 0x461BCD PUSH1 0xE5 SHL DUP2 MSTORE PUSH1 0x4 ADD PUSH2 0x464 SWAP1 PUSH2 0x221B JUMP JUMPDEST PUSH1 0x1 PUSH1 0x1 PUSH1 0xA0 SHL SUB DUP2 AND PUSH2 0x1A32 JUMPI PUSH1 0x40 MLOAD PUSH3 0x461BCD PUSH1 0xE5 SHL DUP2 MSTORE PUSH1 0x20 PUSH1 0x4 DUP3 ADD MSTORE PUSH1 0x1D PUSH1 0x24 DUP3 ADD MSTORE PUSH32 0x5465737465722063616E6E6F74206265207A65726F2061646472657373000000 PUSH1 0x44 DUP3 ADD MSTORE PUSH1 0x64 ADD PUSH2 0x464 JUMP JUMPDEST PUSH1 0x2 DUP1 SLOAD PUSH1 0x1 PUSH1 0x1 PUSH1 0xA0 SHL SUB DUP4 DUP2 AND PUSH1 0x1 PUSH1 0x1 PUSH1 0xA0 SHL SUB NOT DUP4 AND DUP2 OR SWAP1 SWAP4 SSTORE PUSH1 0x40 MLOAD SWAP2 AND SWAP2 SWAP1 DUP3 SWAP1 PUSH32 0xA4AEA4CC51F249AA51DFE52D357E4A5987D893245A866C6456A104CC90234086 SWAP1 PUSH0 SWAP1 LOG3 POP POP JUMP JUMPDEST PUSH1 0x2 PUSH0 SLOAD SUB PUSH2 0x1AA5 JUMPI PUSH1 0x40 MLOAD PUSH4 0x3EE5AEB5 PUSH1 0xE0 SHL DUP2 MSTORE PUSH1 0x4 ADD PUSH1 0x40 MLOAD DUP1 SWAP2 SUB SWAP1 REVERT JUMPDEST PUSH1 0x2 PUSH0 SSTORE JUMP JUMPDEST PUSH1 0x40 MLOAD PUSH1 0x1 PUSH1 0x1 PUSH1 0xA0 SHL SUB DUP5 DUP2 AND PUSH1 0x24 DUP4 ADD MSTORE DUP4 DUP2 AND PUSH1 0x44 DUP4 ADD MSTORE PUSH1 0x64 DUP3 ADD DUP4 SWAP1 MSTORE PUSH2 0x143A SWAP2 DUP7 SWAP2 DUP3 AND SWAP1 PUSH4 0x23B872DD SWAP1 PUSH1 0x84 ADD JUMPDEST PUSH1 0x40 MLOAD PUSH1 0x20 DUP2 DUP4 SUB SUB DUP2 MSTORE SWAP1 PUSH1 0x40 MSTORE SWAP2 POP PUSH1 0xE0 SHL PUSH1 0x20 DUP3 ADD DUP1 MLOAD PUSH1 0x1 PUSH1 0x1 PUSH1 0xE0 SHL SUB DUP4 DUP2 DUP4 AND OR DUP4 MSTORE POP POP POP POP PUSH2 0x1DB3 JUMP JUMPDEST PUSH1 0x40 MLOAD PUSH1 0x1 PUSH1 0x1 PUSH1 0xA0 SHL SUB DUP4 DUP2 AND PUSH1 0x24 DUP4 ADD MSTORE PUSH1 0x44 DUP3 ADD DUP4 SWAP1 MSTORE PUSH2 0x1B43 SWAP2 DUP6 SWAP2 DUP3 AND SWAP1 PUSH4 0xA9059CBB SWAP1 PUSH1 0x64 ADD PUSH2 0x1AE0 JUMP JUMPDEST POP POP POP JUMP JUMPDEST PUSH1 0x5 DUP3 ADD SLOAD PUSH3 0x10000 SWAP1 DIV PUSH4 0xFFFFFFFF AND PUSH0 SUB PUSH2 0x1B7A JUMPI PUSH1 0x5 DUP3 ADD DUP1 SLOAD PUSH2 0xFF00 NOT AND PUSH2 0x100 PUSH1 0xFF DUP5 AND MUL OR SWAP1 SSTORE PUSH2 0x1BF6 JUMP JUMPDEST PUSH1 0x5 DUP3 ADD SLOAD PUSH0 SWAP1 PUSH2 0x1B98 SWAP1 PUSH3 0x10000 SWAP1 DIV PUSH4 0xFFFFFFFF AND PUSH1 0x1 PUSH2 0x226A JUMP JUMPDEST PUSH1 0x5 DUP5 ADD SLOAD PUSH4 0xFFFFFFFF SWAP2 DUP3 AND SWAP2 PUSH1 0xFF DUP1 DUP7 AND SWAP3 PUSH2 0x1BC4 SWAP3 PUSH3 0x10000 DUP3 DIV AND SWAP2 PUSH2 0x100 SWAP1 SWAP2 DIV AND PUSH2 0x228E JUMP JUMPDEST PUSH2 0x1BCE SWAP2 SWAP1 PUSH2 0x2202 JUMP JUMPDEST PUSH2 0x1BD8 SWAP2 SWAP1 PUSH2 0x22A5 JUMP JUMPDEST PUSH1 0x5 DUP5 ADD DUP1 SLOAD PUSH1 0xFF SWAP1 SWAP3 AND PUSH2 0x100 MUL PUSH2 0xFF00 NOT SWAP1 SWAP3 AND SWAP2 SWAP1 SWAP2 OR SWAP1 SSTORE POP JUMPDEST PUSH1 0x5 DUP3 ADD DUP1 SLOAD PUSH1 0xFF NOT AND PUSH1 0xFF DUP4 AND OR DUP1 DUP3 SSTORE PUSH1 0x1 SWAP2 SWAP1 PUSH1 0x2 SWAP1 PUSH2 0x1C26 SWAP1 DUP5 SWAP1 PUSH3 0x10000 SWAP1 DIV PUSH4 0xFFFFFFFF AND PUSH2 0x226A JUMP JUMPDEST DUP3 SLOAD PUSH2 0x100 SWAP3 SWAP1 SWAP3 EXP PUSH4 0xFFFFFFFF DUP2 DUP2 MUL NOT SWAP1 SWAP4 AND SWAP2 SWAP1 SWAP3 AND SWAP2 SWAP1 SWAP2 MUL OR SWAP1 SSTORE POP POP PUSH1 0x5 ADD DUP1 SLOAD PUSH14 0xFFFFFFFFFFFFFFFF000000000000 NOT AND PUSH1 0x1 PUSH1 0x30 SHL TIMESTAMP PUSH8 0xFFFFFFFFFFFFFFFF AND MUL OR SWAP1 SSTORE JUMP JUMPDEST PUSH1 0x2 DUP4 ADD SLOAD PUSH0 SWAP1 DUP2 SWAP1 DUP1 DUP3 SUB PUSH2 0x1C90 JUMPI PUSH0 DUP1 SWAP3 POP SWAP3 POP POP PUSH2 0x1DAB JUMP JUMPDEST PUSH1 0x1 DUP7 ADD SLOAD PUSH1 0xFF PUSH1 0x1 PUSH1 0xA0 SHL SWAP1 SWAP2 DIV DUP2 AND SWAP1 DUP7 AND LT PUSH2 0x1D1D JUMPI PUSH1 0x1 DUP7 ADD SLOAD PUSH0 SWAP1 PUSH2 0x1CC5 SWAP1 PUSH1 0x1 PUSH1 0xA8 SHL SWAP1 DIV PUSH2 0xFFFF AND DUP4 PUSH2 0x228E JUMP JUMPDEST SWAP1 POP PUSH2 0x1CD3 PUSH2 0x2710 DUP3 PUSH2 0x22A5 JUMP JUMPDEST SWAP4 POP DUP2 DUP5 GT ISZERO PUSH2 0x1CE1 JUMPI DUP2 SWAP4 POP JUMPDEST DUP4 DUP8 PUSH1 0x2 ADD PUSH0 DUP3 DUP3 SLOAD PUSH2 0x1CF4 SWAP2 SWAP1 PUSH2 0x2257 JUMP JUMPDEST SWAP3 POP POP DUP2 SWAP1 SSTORE POP DUP4 DUP8 PUSH1 0x3 ADD PUSH0 DUP3 DUP3 SLOAD PUSH2 0x1D0E SWAP2 SWAP1 PUSH2 0x2202 JUMP JUMPDEST SWAP1 SWAP2 SSTORE POP PUSH0 SWAP4 POP PUSH2 0x1DA9 SWAP2 POP POP JUMP JUMPDEST PUSH1 0x1 DUP7 ADD SLOAD PUSH0 SWAP1 PUSH2 0x2710 SWAP1 PUSH2 0x1D3D SWAP1 PUSH1 0x1 PUSH1 0xB8 SHL SWAP1 DIV PUSH2 0xFFFF AND DUP5 PUSH2 0x228E JUMP JUMPDEST PUSH2 0x1D47 SWAP2 SWAP1 PUSH2 0x22A5 JUMP JUMPDEST SWAP1 POP PUSH0 DUP6 PUSH1 0xFF AND GT PUSH2 0x1D59 JUMPI DUP1 PUSH2 0x1D64 JUMP JUMPDEST PUSH2 0x1D64 DUP2 PUSH1 0x2 PUSH2 0x228E JUMP JUMPDEST SWAP3 POP DUP2 DUP4 GT ISZERO PUSH2 0x1D72 JUMPI DUP2 SWAP3 POP JUMPDEST DUP3 DUP8 PUSH1 0x2 ADD PUSH0 DUP3 DUP3 SLOAD PUSH2 0x1D85 SWAP2 SWAP1 PUSH2 0x2257 JUMP JUMPDEST SWAP3 POP POP DUP2 SWAP1 SSTORE POP DUP3 DUP8 PUSH1 0x4 ADD PUSH0 DUP3 DUP3 SLOAD PUSH2 0x1D9F SWAP2 SWAP1 PUSH2 0x2202 JUMP JUMPDEST SWAP1 SWAP2 SSTORE POP PUSH0 SWAP5 POP POP POP JUMPDEST POP JUMPDEST SWAP4 POP SWAP4 SWAP2 POP POP JUMP JUMPDEST PUSH0 DUP1 PUSH1 0x20 PUSH0 DUP5 MLOAD PUSH1 0x20 DUP7 ADD PUSH0 DUP9 GAS CALL DUP1 PUSH2 0x1DD2 JUMPI PUSH1 0x40 MLOAD RETURNDATASIZE PUSH0 DUP3 RETURNDATACOPY RETURNDATASIZE DUP2 REVERT JUMPDEST POP POP PUSH0 MLOAD RETURNDATASIZE SWAP2 POP DUP2 ISZERO PUSH2 0x1DE9 JUMPI DUP1 PUSH1 0x1 EQ ISZERO PUSH2 0x1DF6 JUMP JUMPDEST PUSH1 0x1 PUSH1 0x1 PUSH1 0xA0 SHL SUB DUP5 AND EXTCODESIZE ISZERO JUMPDEST ISZERO PUSH2 0x143A JUMPI PUSH1 0x40 MLOAD PUSH4 0x5274AFE7 PUSH1 0xE0 SHL DUP2 MSTORE PUSH1 0x1 PUSH1 0x1 PUSH1 0xA0 SHL SUB DUP6 AND PUSH1 0x4 DUP3 ADD MSTORE PUSH1 0x24 ADD PUSH2 0x464 JUMP JUMPDEST DUP1 CALLDATALOAD PUSH1 0xFF DUP2 AND DUP2 EQ PUSH2 0x1E2F JUMPI PUSH0 DUP1 REVERT JUMPDEST SWAP2 SWAP1 POP JUMP JUMPDEST DUP1 CALLDATALOAD PUSH2 0xFFFF DUP2 AND DUP2 EQ PUSH2 0x1E2F JUMPI PUSH0 DUP1 REVERT JUMPDEST PUSH0 DUP1 PUSH0 DUP1 PUSH1 0x80 DUP6 DUP8 SUB SLT ISZERO PUSH2 0x1E58 JUMPI PUSH0 DUP1 REVERT JUMPDEST DUP5 CALLDATALOAD SWAP4 POP PUSH2 0x1E68 PUSH1 0x20 DUP7 ADD PUSH2 0x1E1F JUMP JUMPDEST SWAP3 POP PUSH2 0x1E76 PUSH1 0x40 DUP7 ADD PUSH2 0x1E34 JUMP JUMPDEST SWAP2 POP PUSH2 0x1E84 PUSH1 0x60 DUP7 ADD PUSH2 0x1E34 JUMP JUMPDEST SWAP1 POP SWAP3 SWAP6 SWAP2 SWAP5 POP SWAP3 POP JUMP JUMPDEST PUSH0 PUSH1 0x20 DUP3 DUP5 SUB SLT ISZERO PUSH2 0x1E9F JUMPI PUSH0 DUP1 REVERT JUMPDEST POP CALLDATALOAD SWAP2 SWAP1 POP JUMP JUMPDEST PUSH1 0x1 PUSH1 0x1 PUSH1 0xA0 SHL SUB DUP15 DUP2 AND DUP3 MSTORE DUP14 AND PUSH1 0x20 DUP3 ADD MSTORE PUSH1 0xFF DUP13 AND PUSH1 0x40 DUP3 ADD MSTORE PUSH2 0xFFFF DUP12 DUP2 AND PUSH1 0x60 DUP4 ADD MSTORE DUP11 AND PUSH1 0x80 DUP3 ADD MSTORE PUSH2 0x1A0 DUP2 ADD DUP10 PUSH1 0xA0 DUP4 ADD MSTORE DUP9 PUSH1 0xC0 DUP4 ADD MSTORE DUP8 PUSH1 0xE0 DUP4 ADD MSTORE PUSH2 0x1EFC PUSH2 0x100 DUP4 ADD DUP9 PUSH1 0xFF AND SWAP1 MSTORE JUMP JUMPDEST PUSH1 0xFF DUP7 AND PUSH2 0x120 DUP4 ADD MSTORE PUSH4 0xFFFFFFFF DUP6 AND PUSH2 0x140 DUP4 ADD MSTORE PUSH8 0xFFFFFFFFFFFFFFFF DUP5 AND PUSH2 0x160 DUP4 ADD MSTORE DUP3 ISZERO ISZERO PUSH2 0x180 DUP4 ADD MSTORE SWAP15 SWAP14 POP POP POP POP POP POP POP POP POP POP POP POP POP POP JUMP JUMPDEST PUSH0 DUP1 PUSH1 0x40 DUP4 DUP6 SUB SLT ISZERO PUSH2 0x1F50 JUMPI PUSH0 DUP1 REVERT JUMPDEST POP POP DUP1 CALLDATALOAD SWAP3 PUSH1 0x20 SWAP1 SWAP2 ADD CALLDATALOAD SWAP2 POP JUMP JUMPDEST DUP1 CALLDATALOAD PUSH1 0x1 PUSH1 0x1 PUSH1 0xA0 SHL SUB DUP2 AND DUP2 EQ PUSH2 0x1E2F JUMPI PUSH0 DUP1 REVERT JUMPDEST PUSH0 DUP1 PUSH1 0x40 DUP4 DUP6 SUB SLT ISZERO PUSH2 0x1F86 JUMPI PUSH0 DUP1 REVERT JUMPDEST DUP3 CALLDATALOAD SWAP2 POP PUSH2 0x1F96 PUSH1 0x20 DUP5 ADD PUSH2 0x1F5F JUMP JUMPDEST SWAP1 POP SWAP3 POP SWAP3 SWAP1 POP JUMP JUMPDEST PUSH0 DUP1 PUSH0 DUP1 PUSH1 0x80 DUP6 DUP8 SUB SLT ISZERO PUSH2 0x1FB2 JUMPI PUSH0 DUP1 REVERT JUMPDEST PUSH2 0x1FBB DUP6 PUSH2 0x1E1F JUMP JUMPDEST SWAP4 POP PUSH2 0x1FC9 PUSH1 0x20 DUP7 ADD PUSH2 0x1E34 JUMP JUMPDEST SWAP3 POP PUSH2 0x1FD7 PUSH1 0x40 DUP7 ADD PUSH2 0x1E34 JUMP JUMPDEST SWAP4 SWAP7 SWAP3 SWAP6 POP SWAP3 SWAP4 PUSH1 0x60 ADD CALLDATALOAD SWAP3 POP POP JUMP JUMPDEST PUSH0 PUSH1 0x20 DUP3 DUP5 SUB SLT ISZERO PUSH2 0x1FF7 JUMPI PUSH0 DUP1 REVERT JUMPDEST PUSH2 0x2000 DUP3 PUSH2 0x1F5F JUMP JUMPDEST SWAP4 SWAP3 POP POP POP JUMP JUMPDEST PUSH0 DUP1 PUSH0 DUP1 PUSH1 0x80 DUP6 DUP8 SUB SLT ISZERO PUSH2 0x201A JUMPI PUSH0 DUP1 REVERT JUMPDEST DUP5 CALLDATALOAD SWAP4 POP PUSH2 0x202A PUSH1 0x20 DUP7 ADD PUSH2 0x1F5F JUMP JUMPDEST SWAP4 SWAP7 SWAP4 SWAP6 POP POP POP POP PUSH1 0x40 DUP3 ADD CALLDATALOAD SWAP2 PUSH1 0x60 ADD CALLDATALOAD SWAP1 JUMP JUMPDEST DUP2 MLOAD PUSH1 0x1 PUSH1 0x1 PUSH1 0xA0 SHL SUB AND DUP2 MSTORE PUSH2 0x1A0 DUP2 ADD PUSH1 0x20 DUP4 ADD MLOAD PUSH2 0x206B PUSH1 0x20 DUP5 ADD DUP3 PUSH1 0x1 PUSH1 0x1 PUSH1 0xA0 SHL SUB AND SWAP1 MSTORE JUMP JUMPDEST POP PUSH1 0x40 DUP4 ADD MLOAD PUSH2 0x2080 PUSH1 0x40 DUP5 ADD DUP3 PUSH1 0xFF AND SWAP1 MSTORE JUMP JUMPDEST POP PUSH1 0x60 DUP4 ADD MLOAD PUSH2 0x2096 PUSH1 0x60 DUP5 ADD DUP3 PUSH2 0xFFFF AND SWAP1 MSTORE JUMP JUMPDEST POP PUSH1 0x80 DUP4 ADD MLOAD PUSH2 0x20AC PUSH1 0x80 DUP5 ADD DUP3 PUSH2 0xFFFF AND SWAP1 MSTORE JUMP JUMPDEST POP PUSH1 0xA0 DUP4 ADD MLOAD PUSH1 0xA0 DUP4 ADD MSTORE PUSH1 0xC0 DUP4 ADD MLOAD PUSH1 0xC0 DUP4 ADD MSTORE PUSH1 0xE0 DUP4 ADD MLOAD PUSH1 0xE0 DUP4 ADD MSTORE PUSH2 0x100 DUP1 DUP5 ADD MLOAD PUSH2 0x20E0 DUP3 DUP6 ADD DUP3 PUSH1 0xFF AND SWAP1 MSTORE JUMP JUMPDEST POP POP PUSH2 0x120 DUP4 DUP2 ADD MLOAD PUSH1 0xFF AND SWAP1 DUP4 ADD MSTORE PUSH2 0x140 DUP1 DUP5 ADD MLOAD PUSH4 0xFFFFFFFF AND SWAP1 DUP4 ADD MSTORE PUSH2 0x160 DUP1 DUP5 ADD MLOAD PUSH8 0xFFFFFFFFFFFFFFFF AND SWAP1 DUP4 ADD MSTORE PUSH2 0x180 SWAP3 DUP4 ADD MLOAD ISZERO ISZERO SWAP3 SWAP1 SWAP2 ADD SWAP2 SWAP1 SWAP2 MSTORE SWAP1 JUMP JUMPDEST PUSH0 DUP1 PUSH0 DUP1 PUSH1 0x80 DUP6 DUP8 SUB SLT ISZERO PUSH2 0x213D JUMPI PUSH0 DUP1 REVERT JUMPDEST DUP5 CALLDATALOAD SWAP4 POP PUSH2 0x214D PUSH1 0x20 DUP7 ADD PUSH2 0x1E1F JUMP JUMPDEST SWAP3 POP PUSH2 0x1FD7 PUSH1 0x40 DUP7 ADD PUSH2 0x1E1F JUMP JUMPDEST PUSH1 0x20 DUP1 DUP3 MSTORE PUSH1 0x1B SWAP1 DUP3 ADD MSTORE PUSH32 0x436F6E747261637420697320676C6F62616C6C79207061757365640000000000 PUSH1 0x40 DUP3 ADD MSTORE PUSH1 0x60 ADD SWAP1 JUMP JUMPDEST PUSH1 0x20 DUP1 DUP3 MSTORE PUSH1 0x16 SWAP1 DUP3 ADD MSTORE PUSH22 0x141C9BDA9958DD08191BD95CC81B9BDD08195E1A5CDD PUSH1 0x52 SHL PUSH1 0x40 DUP3 ADD MSTORE PUSH1 0x60 ADD SWAP1 JUMP JUMPDEST PUSH1 0x20 DUP1 DUP3 MSTORE PUSH1 0x12 SWAP1 DUP3 ADD MSTORE PUSH18 0x27B7363C90383937B532B1BA1037BBB732B9 PUSH1 0x71 SHL PUSH1 0x40 DUP3 ADD MSTORE PUSH1 0x60 ADD SWAP1 JUMP JUMPDEST PUSH4 0x4E487B71 PUSH1 0xE0 SHL PUSH0 MSTORE PUSH1 0x11 PUSH1 0x4 MSTORE PUSH1 0x24 PUSH0 REVERT JUMPDEST DUP1 DUP3 ADD DUP1 DUP3 GT ISZERO PUSH2 0x2215 JUMPI PUSH2 0x2215 PUSH2 0x21EE JUMP JUMPDEST SWAP3 SWAP2 POP POP JUMP JUMPDEST PUSH1 0x20 DUP1 DUP3 MSTORE PUSH1 0xA SWAP1 DUP3 ADD MSTORE PUSH10 0x27B7363C9030B236B4B7 PUSH1 0xB1 SHL PUSH1 0x40 DUP3 ADD MSTORE PUSH1 0x60 ADD SWAP1 JUMP JUMPDEST PUSH0 PUSH1 0x1 DUP3 ADD PUSH2 0x2250 JUMPI PUSH2 0x2250 PUSH2 0x21EE JUMP JUMPDEST POP PUSH1 0x1 ADD SWAP1 JUMP JUMPDEST DUP2 DUP2 SUB DUP2 DUP2 GT ISZERO PUSH2 0x2215 JUMPI PUSH2 0x2215 PUSH2 0x21EE JUMP JUMPDEST PUSH4 0xFFFFFFFF DUP2 DUP2 AND DUP4 DUP3 AND ADD SWAP1 DUP1 DUP3 GT ISZERO PUSH2 0x2287 JUMPI PUSH2 0x2287 PUSH2 0x21EE JUMP JUMPDEST POP SWAP3 SWAP2 POP POP JUMP JUMPDEST DUP1 DUP3 MUL DUP2 ISZERO DUP3 DUP3 DIV DUP5 EQ OR PUSH2 0x2215 JUMPI PUSH2 0x2215 PUSH2 0x21EE JUMP JUMPDEST PUSH0 DUP3 PUSH2 0x22BF JUMPI PUSH4 0x4E487B71 PUSH1 0xE0 SHL PUSH0 MSTORE PUSH1 0x12 PUSH1 0x4 MSTORE PUSH1 0x24 PUSH0 REVERT JUMPDEST POP DIV SWAP1 JUMP INVALID LOG2 PUSH5 0x6970667358 0x22 SLT KECCAK256 0xFB DUP12 0xF6 SSTORE JUMP SUB CHAINID CALL INVALID DUP8 NOT PREVRANDAO CHAINID EQ 0xCB GAS PUSH27 0x8CB93E64D67AC748C20C9E655C1ECD64736F6C6343000814003300 "},"methodIdentifiers":{"admin()":"f851a440","bounties(uint256,address)":"2002f13f","claimBounty(uint256)":"44021ad7","createBountyPayout(uint256,address,uint256,bytes32)":"94636af7","createProject(uint8,uint16,uint16,uint256)":"673797c2","depositEscrow(uint256,uint256)":"11e0003a","getBalances(uint256)":"490adbaf","getMetrics(uint256)":"9a8e4495","getProject(uint256)":"f0f3f2c8","globalPaused()":"61a552dc","nextProjectId()":"e935b7b1","pauseGlobal()":"98e9a952","pauseProject(uint256)":"0f717a63","projects(uint256)":"107046bd","recordTestResult(uint256,uint8,uint8,bytes32)":"f42332c8","setAdmin(address)":"704b6c02","setTester(address)":"f739edd7","tester()":"8308abd4","unpauseGlobal()":"154ae6b6","unpauseProject(uint256)":"d9394d83","updateProjectConfig(uint256,uint8,uint16,uint16)":"09e3ee78","usdc()":"3e413bee","withdrawRewards(uint256)":"9342c8f4"}}}}}